{
  "_format": "hh-sol-artifact-1",
  "contractName": "Warehouse",
  "sourceName": "contracts/Warehouse-Management.sol",
  "abi": [
    {
      "inputs": [],
      "stateMutability": "nonpayable",
      "type": "constructor"
    },
    {
      "anonymous": false,
      "inputs": [
        {
          "indexed": false,
          "internalType": "uint256",
          "name": "itemId",
          "type": "uint256"
        },
        {
          "indexed": false,
          "internalType": "string",
          "name": "name",
          "type": "string"
        }
      ],
      "name": "ItemAdded",
      "type": "event"
    },
    {
      "anonymous": false,
      "inputs": [
        {
          "indexed": false,
          "internalType": "address",
          "name": "operator",
          "type": "address"
        },
        {
          "indexed": false,
          "internalType": "bool",
          "name": "status",
          "type": "bool"
        }
      ],
      "name": "OperatorChanged",
      "type": "event"
    },
    {
      "anonymous": false,
      "inputs": [
        {
          "indexed": true,
          "internalType": "uint256",
          "name": "timestamp",
          "type": "uint256"
        },
        {
          "indexed": true,
          "internalType": "address",
          "name": "operator",
          "type": "address"
        },
        {
          "indexed": false,
          "internalType": "string",
          "name": "note",
          "type": "string"
        },
        {
          "indexed": false,
          "internalType": "uint256[]",
          "name": "itemIds",
          "type": "uint256[]"
        },
        {
          "indexed": false,
          "internalType": "uint256[]",
          "name": "amounts",
          "type": "uint256[]"
        }
      ],
      "name": "StockCheckedIn",
      "type": "event"
    },
    {
      "anonymous": false,
      "inputs": [
        {
          "indexed": true,
          "internalType": "uint256",
          "name": "timestamp",
          "type": "uint256"
        },
        {
          "indexed": true,
          "internalType": "address",
          "name": "operator",
          "type": "address"
        },
        {
          "indexed": false,
          "internalType": "string",
          "name": "note",
          "type": "string"
        },
        {
          "indexed": false,
          "internalType": "uint256[]",
          "name": "itemIds",
          "type": "uint256[]"
        },
        {
          "indexed": false,
          "internalType": "uint256[]",
          "name": "amounts",
          "type": "uint256[]"
        }
      ],
      "name": "StockCheckedOut",
      "type": "event"
    },
    {
      "inputs": [
        {
          "internalType": "string",
          "name": "name",
          "type": "string"
        },
        {
          "internalType": "string",
          "name": "category",
          "type": "string"
        }
      ],
      "name": "addItem",
      "outputs": [],
      "stateMutability": "nonpayable",
      "type": "function"
    },
    {
      "inputs": [
        {
          "internalType": "address",
          "name": "_operator",
          "type": "address"
        }
      ],
      "name": "addOperator",
      "outputs": [],
      "stateMutability": "nonpayable",
      "type": "function"
    },
    {
      "inputs": [],
      "name": "getActiveOperators",
      "outputs": [
        {
          "internalType": "address[]",
          "name": "",
          "type": "address[]"
        }
      ],
      "stateMutability": "view",
      "type": "function"
    },
    {
      "inputs": [],
      "name": "getAllItems",
      "outputs": [
        {
          "components": [
            {
              "internalType": "uint256",
              "name": "id",
              "type": "uint256"
            },
            {
              "internalType": "string",
              "name": "name",
              "type": "string"
            },
            {
              "internalType": "string",
              "name": "category",
              "type": "string"
            },
            {
              "internalType": "uint256",
              "name": "quantity",
              "type": "uint256"
            },
            {
              "internalType": "bool",
              "name": "isActive",
              "type": "bool"
            }
          ],
          "internalType": "struct Warehouse.Item[]",
          "name": "",
          "type": "tuple[]"
        }
      ],
      "stateMutability": "view",
      "type": "function"
    },
    {
      "inputs": [],
      "name": "getAllOperators",
      "outputs": [
        {
          "internalType": "address[]",
          "name": "",
          "type": "address[]"
        }
      ],
      "stateMutability": "view",
      "type": "function"
    },
    {
      "inputs": [
        {
          "internalType": "uint256",
          "name": "itemId",
          "type": "uint256"
        }
      ],
      "name": "getItemById",
      "outputs": [
        {
          "components": [
            {
              "internalType": "uint256",
              "name": "id",
              "type": "uint256"
            },
            {
              "internalType": "string",
              "name": "name",
              "type": "string"
            },
            {
              "internalType": "string",
              "name": "category",
              "type": "string"
            },
            {
              "internalType": "uint256",
              "name": "quantity",
              "type": "uint256"
            },
            {
              "internalType": "bool",
              "name": "isActive",
              "type": "bool"
            }
          ],
          "internalType": "struct Warehouse.Item",
          "name": "",
          "type": "tuple"
        }
      ],
      "stateMutability": "view",
      "type": "function"
    },
    {
      "inputs": [
        {
          "internalType": "uint256",
          "name": "index",
          "type": "uint256"
        }
      ],
      "name": "getLog",
      "outputs": [
        {
          "internalType": "uint256",
          "name": "timestamp",
          "type": "uint256"
        },
        {
          "internalType": "enum Warehouse.Action",
          "name": "action",
          "type": "uint8"
        },
        {
          "internalType": "address",
          "name": "operator",
          "type": "address"
        },
        {
          "internalType": "string",
          "name": "note",
          "type": "string"
        },
        {
          "internalType": "uint256[]",
          "name": "itemIds",
          "type": "uint256[]"
        },
        {
          "internalType": "uint256[]",
          "name": "amounts",
          "type": "uint256[]"
        }
      ],
      "stateMutability": "view",
      "type": "function"
    },
    {
      "inputs": [
        {
          "internalType": "uint256",
          "name": "",
          "type": "uint256"
        }
      ],
      "name": "items",
      "outputs": [
        {
          "internalType": "uint256",
          "name": "id",
          "type": "uint256"
        },
        {
          "internalType": "string",
          "name": "name",
          "type": "string"
        },
        {
          "internalType": "string",
          "name": "category",
          "type": "string"
        },
        {
          "internalType": "uint256",
          "name": "quantity",
          "type": "uint256"
        },
        {
          "internalType": "bool",
          "name": "isActive",
          "type": "bool"
        }
      ],
      "stateMutability": "view",
      "type": "function"
    },
    {
      "inputs": [
        {
          "internalType": "uint256",
          "name": "",
          "type": "uint256"
        }
      ],
      "name": "logs",
      "outputs": [
        {
          "internalType": "uint256",
          "name": "timestamp",
          "type": "uint256"
        },
        {
          "internalType": "enum Warehouse.Action",
          "name": "action",
          "type": "uint8"
        },
        {
          "internalType": "address",
          "name": "operator",
          "type": "address"
        },
        {
          "internalType": "string",
          "name": "note",
          "type": "string"
        }
      ],
      "stateMutability": "view",
      "type": "function"
    },
    {
      "inputs": [
        {
          "internalType": "address",
          "name": "",
          "type": "address"
        }
      ],
      "name": "operators",
      "outputs": [
        {
          "internalType": "bool",
          "name": "",
          "type": "bool"
        }
      ],
      "stateMutability": "view",
      "type": "function"
    },
    {
      "inputs": [
        {
          "internalType": "address",
          "name": "_operator",
          "type": "address"
        }
      ],
      "name": "removeOperator",
      "outputs": [],
      "stateMutability": "nonpayable",
      "type": "function"
    },
    {
      "inputs": [
        {
          "internalType": "uint256[]",
          "name": "itemIds",
          "type": "uint256[]"
        },
        {
          "internalType": "uint256[]",
          "name": "amounts",
          "type": "uint256[]"
        },
        {
          "internalType": "string",
          "name": "note",
          "type": "string"
        }
      ],
      "name": "stockIn",
      "outputs": [],
      "stateMutability": "nonpayable",
      "type": "function"
    },
    {
      "inputs": [
        {
          "internalType": "uint256[]",
          "name": "itemIds",
          "type": "uint256[]"
        },
        {
          "internalType": "uint256[]",
          "name": "amounts",
          "type": "uint256[]"
        },
        {
          "internalType": "string",
          "name": "note",
          "type": "string"
        }
      ],
      "name": "stockOut",
      "outputs": [],
      "stateMutability": "nonpayable",
      "type": "function"
    }
  ],
  "bytecode": "0x608060405260018055348015601357600080fd5b50336000806101000a81548173ffffffffffffffffffffffffffffffffffffffff021916908373ffffffffffffffffffffffffffffffffffffffff160217905550612d87806100636000396000f3fe608060405234801561001057600080fd5b50600436106100cf5760003560e01c8063a6c2ef061161008c578063bfb231d211610066578063bfb231d214610201578063cd2f071014610235578063d911c63214610265578063e79899bd14610283576100cf565b8063a6c2ef06146101ad578063a97c6551146101c9578063ac8a584a146101e5576100cf565b806313e7c9d8146100d45780633206b2c6146101045780634ba1d6aa1461013957806364bdc67e146101575780637ed8a719146101755780639870d7fe14610191575b600080fd5b6100ee60048036038101906100e99190611b3f565b6102b6565b6040516100fb9190611b87565b60405180910390f35b61011e60048036038101906101199190611bd8565b6102d6565b60405161013096959493929190611de8565b60405180910390f35b610141610587565b60405161014e9190611ff6565b60405180910390f35b61015f6107af565b60405161016c91906120d6565b60405180910390f35b61018f600480360381019061018a919061222d565b610a0d565b005b6101ab60048036038101906101a69190611b3f565b610b95565b005b6101c760048036038101906101c2919061236d565b610da8565b005b6101e360048036038101906101de919061236d565b6110f3565b005b6101ff60048036038101906101fa9190611b3f565b611497565b005b61021b60048036038101906102169190611bd8565b611646565b60405161022c959493929190612414565b60405180910390f35b61024f600480360381019061024a9190611bd8565b611799565b60405161025c91906124f2565b60405180910390f35b61026d611919565b60405161027a91906120d6565b60405180910390f35b61029d60048036038101906102989190611bd8565b6119a7565b6040516102ad9493929190612514565b60405180910390f35b60036020528060005260406000206000915054906101000a900460ff1681565b600080600060608060606005805490508710806102f4575060008710155b610333576040517f08c379a000000000000000000000000000000000000000000000000000000000815260040161032a906125ac565b60405180910390fd5b600060058881548110610349576103486125cc565b5b906000526020600020906004020190506000816001018054905090508067ffffffffffffffff81111561037f5761037e612102565b5b6040519080825280602002602001820160405280156103ad5781602001602082028036833780820191505090505b5093508067ffffffffffffffff8111156103ca576103c9612102565b5b6040519080825280602002602001820160405280156103f85781602001602082028036833780820191505090505b50925060005b818110156104a15782600101818154811061041c5761041b6125cc565b5b906000526020600020906002020160000154858281518110610441576104406125cc565b5b602002602001018181525050826001018181548110610463576104626125cc565b5b906000526020600020906002020160010154848281518110610488576104876125cc565b5b60200260200101818152505080806001019150506103fe565b5081600001548260020160009054906101000a900460ff168360020160019054906101000a900473ffffffffffffffffffffffffffffffffffffffff168460030187878280546104f09061262a565b80601f016020809104026020016040519081016040528092919081815260200182805461051c9061262a565b80156105695780601f1061053e57610100808354040283529160200191610569565b820191906000526020600020905b81548152906001019060200180831161054c57829003601f168201915b50505050509250975097509750975097509750505091939550919395565b6060600060018054610599919061268a565b67ffffffffffffffff8111156105b2576105b1612102565b5b6040519080825280602002602001820160405280156105eb57816020015b6105d8611a9c565b8152602001906001900390816105d05790505b5090506000600190505b6001548110156107a757600260008281526020019081526020016000206040518060a0016040529081600082015481526020016001820180546106379061262a565b80601f01602080910402602001604051908101604052809291908181526020018280546106639061262a565b80156106b05780601f10610685576101008083540402835291602001916106b0565b820191906000526020600020905b81548152906001019060200180831161069357829003601f168201915b505050505081526020016002820180546106c99061262a565b80601f01602080910402602001604051908101604052809291908181526020018280546106f59061262a565b80156107425780601f1061071757610100808354040283529160200191610742565b820191906000526020600020905b81548152906001019060200180831161072557829003601f168201915b50505050508152602001600382015481526020016004820160009054906101000a900460ff1615151515815250508260018361077e919061268a565b8151811061078f5761078e6125cc565b5b602002602001018190525080806001019150506105f5565b508091505090565b60606000805b60048054905081101561086e5760036000600483815481106107da576107d96125cc565b5b9060005260206000200160009054906101000a900473ffffffffffffffffffffffffffffffffffffffff1673ffffffffffffffffffffffffffffffffffffffff1673ffffffffffffffffffffffffffffffffffffffff16815260200190815260200160002060009054906101000a900460ff161561086157818061085d906126be565b9250505b80806001019150506107b5565b5060008167ffffffffffffffff81111561088b5761088a612102565b5b6040519080825280602002602001820160405280156108b95781602001602082028036833780820191505090505b5090506000805b600480549050811015610a035760036000600483815481106108e5576108e46125cc565b5b9060005260206000200160009054906101000a900473ffffffffffffffffffffffffffffffffffffffff1673ffffffffffffffffffffffffffffffffffffffff1673ffffffffffffffffffffffffffffffffffffffff16815260200190815260200160002060009054906101000a900460ff16156109f65760048181548110610971576109706125cc565b5b9060005260206000200160009054906101000a900473ffffffffffffffffffffffffffffffffffffffff168383806109a8906126be565b9450815181106109bb576109ba6125cc565b5b602002602001019073ffffffffffffffffffffffffffffffffffffffff16908173ffffffffffffffffffffffffffffffffffffffff16815250505b80806001019150506108c0565b5081935050505090565b600360003373ffffffffffffffffffffffffffffffffffffffff1673ffffffffffffffffffffffffffffffffffffffff16815260200190815260200160002060009054906101000a900460ff16610a99576040517f08c379a0000000000000000000000000000000000000000000000000000000008152600401610a9090612752565b60405180910390fd5b6040518060a0016040528060015481526020018381526020018281526020016000815260200160011515815250600260006001548152602001908152602001600020600082015181600001556020820151816001019081610afa919061291e565b506040820151816002019081610b10919061291e565b506060820151816003015560808201518160040160006101000a81548160ff0219169083151502179055509050507f78d68ba0e8c23b92e7c700d99efed2719520cbd4af845b2c03ae251f9cdf3d5260015483604051610b719291906129f0565b60405180910390a160016000815480929190610b8c906126be565b91905055505050565b60008054906101000a900473ffffffffffffffffffffffffffffffffffffffff1673ffffffffffffffffffffffffffffffffffffffff163373ffffffffffffffffffffffffffffffffffffffff1614610c23576040517f08c379a0000000000000000000000000000000000000000000000000000000008152600401610c1a90612a6c565b60405180910390fd5b600360008273ffffffffffffffffffffffffffffffffffffffff1673ffffffffffffffffffffffffffffffffffffffff16815260200190815260200160002060009054906101000a900460ff1615610cb0576040517f08c379a0000000000000000000000000000000000000000000000000000000008152600401610ca790612ad8565b60405180910390fd5b6001600360008373ffffffffffffffffffffffffffffffffffffffff1673ffffffffffffffffffffffffffffffffffffffff16815260200190815260200160002060006101000a81548160ff0219169083151502179055506004819080600181540180825580915050600190039060005260206000200160009091909190916101000a81548173ffffffffffffffffffffffffffffffffffffffff021916908373ffffffffffffffffffffffffffffffffffffffff1602179055507f193de8d500b5cb7b720089b258a39e9c1d0b840019a73ae7c51c3f9101732b02816001604051610d9d929190612af8565b60405180910390a150565b600360003373ffffffffffffffffffffffffffffffffffffffff1673ffffffffffffffffffffffffffffffffffffffff16815260200190815260200160002060009054906101000a900460ff16610e34576040517f08c379a0000000000000000000000000000000000000000000000000000000008152600401610e2b90612752565b60405180910390fd5b8151835114610e78576040517f08c379a0000000000000000000000000000000000000000000000000000000008152600401610e6f90612b6d565b60405180910390fd5b600560018160018154018082558091505003906000526020600020905050600060056001600580549050610eac919061268a565b81548110610ebd57610ebc6125cc565b5b9060005260206000209060040201905042816000018190555060008160020160006101000a81548160ff02191690836001811115610efe57610efd611c14565b5b0217905550338160020160016101000a81548173ffffffffffffffffffffffffffffffffffffffff021916908373ffffffffffffffffffffffffffffffffffffffff16021790555081816003019081610f57919061291e565b5060005b8451811015611099576000858281518110610f7957610f786125cc565b5b602002602001015190506000858381518110610f9857610f976125cc565b5b602002602001015190506002600083815260200190815260200160002060040160009054906101000a900460ff16611005576040517f08c379a0000000000000000000000000000000000000000000000000000000008152600401610ffc90612bd9565b60405180910390fd5b8060026000848152602001908152602001600020600301600082825461102b9190612bf9565b925050819055508360010160405180604001604052808481526020018381525090806001815401808255809150506001900390600052602060002090600202016000909190919091506000820151816000015560208201518160010155505050508080600101915050610f5b565b503373ffffffffffffffffffffffffffffffffffffffff16427fd6e6f374ba54c0da4686fb95bab98a1747055413ccedd0c19883c92bfe2a21a68487876040516110e593929190612c2d565b60405180910390a350505050565b600360003373ffffffffffffffffffffffffffffffffffffffff1673ffffffffffffffffffffffffffffffffffffffff16815260200190815260200160002060009054906101000a900460ff1661117f576040517f08c379a000000000000000000000000000000000000000000000000000000000815260040161117690612752565b60405180910390fd5b81518351146111c3576040517f08c379a00000000000000000000000000000000000000000000000000000000081526004016111ba90612b6d565b60405180910390fd5b6005600181600181540180825580915050039060005260206000209050506000600560016005805490506111f7919061268a565b81548110611208576112076125cc565b5b9060005260206000209060040201905042816000018190555060018160020160006101000a81548160ff0219169083600181111561124957611248611c14565b5b0217905550338160020160016101000a81548173ffffffffffffffffffffffffffffffffffffffff021916908373ffffffffffffffffffffffffffffffffffffffff160217905550818160030190816112a2919061291e565b5060005b845181101561143d5760008582815181106112c4576112c36125cc565b5b6020026020010151905060008583815181106112e3576112e26125cc565b5b602002602001015190506002600083815260200190815260200160002060040160009054906101000a900460ff16611350576040517f08c379a000000000000000000000000000000000000000000000000000000000815260040161134790612bd9565b60405180910390fd5b80600260008481526020019081526020016000206003015410156113a9576040517f08c379a00000000000000000000000000000000000000000000000000000000081526004016113a090612cc5565b60405180910390fd5b806002600084815260200190815260200160002060030160008282546113cf919061268a565b9250508190555083600101604051806040016040528084815260200183815250908060018154018082558091505060019003906000526020600020906002020160009091909190915060008201518160000155602082015181600101555050505080806001019150506112a6565b503373ffffffffffffffffffffffffffffffffffffffff16427fc4ee83de1e0159336d182515e213b3b9b4961450a17963e92d762b466fdc726684878760405161148993929190612c2d565b60405180910390a350505050565b60008054906101000a900473ffffffffffffffffffffffffffffffffffffffff1673ffffffffffffffffffffffffffffffffffffffff163373ffffffffffffffffffffffffffffffffffffffff1614611525576040517f08c379a000000000000000000000000000000000000000000000000000000000815260040161151c90612a6c565b60405180910390fd5b600360008273ffffffffffffffffffffffffffffffffffffffff1673ffffffffffffffffffffffffffffffffffffffff16815260200190815260200160002060009054906101000a900460ff166115b1576040517f08c379a00000000000000000000000000000000000000000000000000000000081526004016115a890612d31565b60405180910390fd5b6000600360008373ffffffffffffffffffffffffffffffffffffffff1673ffffffffffffffffffffffffffffffffffffffff16815260200190815260200160002060006101000a81548160ff0219169083151502179055507f193de8d500b5cb7b720089b258a39e9c1d0b840019a73ae7c51c3f9101732b0281600060405161163b929190612af8565b60405180910390a150565b600260205280600052604060002060009150905080600001549080600101805461166f9061262a565b80601f016020809104026020016040519081016040528092919081815260200182805461169b9061262a565b80156116e85780601f106116bd576101008083540402835291602001916116e8565b820191906000526020600020905b8154815290600101906020018083116116cb57829003601f168201915b5050505050908060020180546116fd9061262a565b80601f01602080910402602001604051908101604052809291908181526020018280546117299061262a565b80156117765780601f1061174b57610100808354040283529160200191611776565b820191906000526020600020905b81548152906001019060200180831161175957829003601f168201915b5050505050908060030154908060040160009054906101000a900460ff16905085565b6117a1611a9c565b600260008381526020019081526020016000206040518060a0016040529081600082015481526020016001820180546117d99061262a565b80601f01602080910402602001604051908101604052809291908181526020018280546118059061262a565b80156118525780601f1061182757610100808354040283529160200191611852565b820191906000526020600020905b81548152906001019060200180831161183557829003601f168201915b5050505050815260200160028201805461186b9061262a565b80601f01602080910402602001604051908101604052809291908181526020018280546118979061262a565b80156118e45780601f106118b9576101008083540402835291602001916118e4565b820191906000526020600020905b8154815290600101906020018083116118c757829003601f168201915b50505050508152602001600382015481526020016004820160009054906101000a900460ff1615151515815250509050919050565b6060600480548060200260200160405190810160405280929190818152602001828054801561199d57602002820191906000526020600020905b8160009054906101000a900473ffffffffffffffffffffffffffffffffffffffff1673ffffffffffffffffffffffffffffffffffffffff1681526020019060010190808311611953575b5050505050905090565b600581815481106119b757600080fd5b90600052602060002090600402016000915090508060000154908060020160009054906101000a900460ff16908060020160019054906101000a900473ffffffffffffffffffffffffffffffffffffffff1690806003018054611a199061262a565b80601f0160208091040260200160405190810160405280929190818152602001828054611a459061262a565b8015611a925780601f10611a6757610100808354040283529160200191611a92565b820191906000526020600020905b815481529060010190602001808311611a7557829003601f168201915b5050505050905084565b6040518060a00160405280600081526020016060815260200160608152602001600081526020016000151581525090565b6000604051905090565b600080fd5b600080fd5b600073ffffffffffffffffffffffffffffffffffffffff82169050919050565b6000611b0c82611ae1565b9050919050565b611b1c81611b01565b8114611b2757600080fd5b50565b600081359050611b3981611b13565b92915050565b600060208284031215611b5557611b54611ad7565b5b6000611b6384828501611b2a565b91505092915050565b60008115159050919050565b611b8181611b6c565b82525050565b6000602082019050611b9c6000830184611b78565b92915050565b6000819050919050565b611bb581611ba2565b8114611bc057600080fd5b50565b600081359050611bd281611bac565b92915050565b600060208284031215611bee57611bed611ad7565b5b6000611bfc84828501611bc3565b91505092915050565b611c0e81611ba2565b82525050565b7f4e487b7100000000000000000000000000000000000000000000000000000000600052602160045260246000fd5b60028110611c5457611c53611c14565b5b50565b6000819050611c6582611c43565b919050565b6000611c7582611c57565b9050919050565b611c8581611c6a565b82525050565b611c9481611b01565b82525050565b600081519050919050565b600082825260208201905092915050565b60005b83811015611cd4578082015181840152602081019050611cb9565b60008484015250505050565b6000601f19601f8301169050919050565b6000611cfc82611c9a565b611d068185611ca5565b9350611d16818560208601611cb6565b611d1f81611ce0565b840191505092915050565b600081519050919050565b600082825260208201905092915050565b6000819050602082019050919050565b611d5f81611ba2565b82525050565b6000611d718383611d56565b60208301905092915050565b6000602082019050919050565b6000611d9582611d2a565b611d9f8185611d35565b9350611daa83611d46565b8060005b83811015611ddb578151611dc28882611d65565b9750611dcd83611d7d565b925050600181019050611dae565b5085935050505092915050565b600060c082019050611dfd6000830189611c05565b611e0a6020830188611c7c565b611e176040830187611c8b565b8181036060830152611e298186611cf1565b90508181036080830152611e3d8185611d8a565b905081810360a0830152611e518184611d8a565b9050979650505050505050565b600081519050919050565b600082825260208201905092915050565b6000819050602082019050919050565b600082825260208201905092915050565b6000611ea682611c9a565b611eb08185611e8a565b9350611ec0818560208601611cb6565b611ec981611ce0565b840191505092915050565b611edd81611b6c565b82525050565b600060a083016000830151611efb6000860182611d56565b5060208301518482036020860152611f138282611e9b565b91505060408301518482036040860152611f2d8282611e9b565b9150506060830151611f426060860182611d56565b506080830151611f556080860182611ed4565b508091505092915050565b6000611f6c8383611ee3565b905092915050565b6000602082019050919050565b6000611f8c82611e5e565b611f968185611e69565b935083602082028501611fa885611e7a565b8060005b85811015611fe45784840389528151611fc58582611f60565b9450611fd083611f74565b925060208a01995050600181019050611fac565b50829750879550505050505092915050565b600060208201905081810360008301526120108184611f81565b905092915050565b600081519050919050565b600082825260208201905092915050565b6000819050602082019050919050565b61204d81611b01565b82525050565b600061205f8383612044565b60208301905092915050565b6000602082019050919050565b600061208382612018565b61208d8185612023565b935061209883612034565b8060005b838110156120c95781516120b08882612053565b97506120bb8361206b565b92505060018101905061209c565b5085935050505092915050565b600060208201905081810360008301526120f08184612078565b905092915050565b600080fd5b600080fd5b7f4e487b7100000000000000000000000000000000000000000000000000000000600052604160045260246000fd5b61213a82611ce0565b810181811067ffffffffffffffff8211171561215957612158612102565b5b80604052505050565b600061216c611acd565b90506121788282612131565b919050565b600067ffffffffffffffff82111561219857612197612102565b5b6121a182611ce0565b9050602081019050919050565b82818337600083830152505050565b60006121d06121cb8461217d565b612162565b9050828152602081018484840111156121ec576121eb6120fd565b5b6121f78482856121ae565b509392505050565b600082601f830112612214576122136120f8565b5b81356122248482602086016121bd565b91505092915050565b6000806040838503121561224457612243611ad7565b5b600083013567ffffffffffffffff81111561226257612261611adc565b5b61226e858286016121ff565b925050602083013567ffffffffffffffff81111561228f5761228e611adc565b5b61229b858286016121ff565b9150509250929050565b600067ffffffffffffffff8211156122c0576122bf612102565b5b602082029050602081019050919050565b600080fd5b60006122e96122e4846122a5565b612162565b9050808382526020820190506020840283018581111561230c5761230b6122d1565b5b835b8181101561233557806123218882611bc3565b84526020840193505060208101905061230e565b5050509392505050565b600082601f830112612354576123536120f8565b5b81356123648482602086016122d6565b91505092915050565b60008060006060848603121561238657612385611ad7565b5b600084013567ffffffffffffffff8111156123a4576123a3611adc565b5b6123b08682870161233f565b935050602084013567ffffffffffffffff8111156123d1576123d0611adc565b5b6123dd8682870161233f565b925050604084013567ffffffffffffffff8111156123fe576123fd611adc565b5b61240a868287016121ff565b9150509250925092565b600060a0820190506124296000830188611c05565b818103602083015261243b8187611cf1565b9050818103604083015261244f8186611cf1565b905061245e6060830185611c05565b61246b6080830184611b78565b9695505050505050565b600060a08301600083015161248d6000860182611d56565b50602083015184820360208601526124a58282611e9b565b915050604083015184820360408601526124bf8282611e9b565b91505060608301516124d46060860182611d56565b5060808301516124e76080860182611ed4565b508091505092915050565b6000602082019050818103600083015261250c8184612475565b905092915050565b60006080820190506125296000830187611c05565b6125366020830186611c7c565b6125436040830185611c8b565b81810360608301526125558184611cf1565b905095945050505050565b7f4c6f6720696e646578206f7574206f6620626f756e6473000000000000000000600082015250565b6000612596601783611ca5565b91506125a182612560565b602082019050919050565b600060208201905081810360008301526125c581612589565b9050919050565b7f4e487b7100000000000000000000000000000000000000000000000000000000600052603260045260246000fd5b7f4e487b7100000000000000000000000000000000000000000000000000000000600052602260045260246000fd5b6000600282049050600182168061264257607f821691505b602082108103612655576126546125fb565b5b50919050565b7f4e487b7100000000000000000000000000000000000000000000000000000000600052601160045260246000fd5b600061269582611ba2565b91506126a083611ba2565b92508282039050818111156126b8576126b761265b565b5b92915050565b60006126c982611ba2565b91507fffffffffffffffffffffffffffffffffffffffffffffffffffffffffffffffff82036126fb576126fa61265b565b5b600182019050919050565b7f4e6f74206f70657261746f720000000000000000000000000000000000000000600082015250565b600061273c600c83611ca5565b915061274782612706565b602082019050919050565b6000602082019050818103600083015261276b8161272f565b9050919050565b60008190508160005260206000209050919050565b60006020601f8301049050919050565b600082821b905092915050565b6000600883026127d47fffffffffffffffffffffffffffffffffffffffffffffffffffffffffffffffff82612797565b6127de8683612797565b95508019841693508086168417925050509392505050565b6000819050919050565b600061281b61281661281184611ba2565b6127f6565b611ba2565b9050919050565b6000819050919050565b61283583612800565b61284961284182612822565b8484546127a4565b825550505050565b600090565b61285e612851565b61286981848461282c565b505050565b5b8181101561288d57612882600082612856565b60018101905061286f565b5050565b601f8211156128d2576128a381612772565b6128ac84612787565b810160208510156128bb578190505b6128cf6128c785612787565b83018261286e565b50505b505050565b600082821c905092915050565b60006128f5600019846008026128d7565b1980831691505092915050565b600061290e83836128e4565b9150826002028217905092915050565b61292782611c9a565b67ffffffffffffffff8111156129405761293f612102565b5b61294a825461262a565b612955828285612891565b600060209050601f8311600181146129885760008415612976578287015190505b6129808582612902565b8655506129e8565b601f19841661299686612772565b60005b828110156129be57848901518255600182019150602085019450602081019050612999565b868310156129db57848901516129d7601f8916826128e4565b8355505b6001600288020188555050505b505050505050565b6000604082019050612a056000830185611c05565b8181036020830152612a178184611cf1565b90509392505050565b7f4e6f74206f776e65720000000000000000000000000000000000000000000000600082015250565b6000612a56600983611ca5565b9150612a6182612a20565b602082019050919050565b60006020820190508181036000830152612a8581612a49565b9050919050565b7f416c7265616479206f70657261746f7200000000000000000000000000000000600082015250565b6000612ac2601083611ca5565b9150612acd82612a8c565b602082019050919050565b60006020820190508181036000830152612af181612ab5565b9050919050565b6000604082019050612b0d6000830185611c8b565b612b1a6020830184611b78565b9392505050565b7f496e707574206172726179206c656e677468206d69736d617463680000000000600082015250565b6000612b57601b83611ca5565b9150612b6282612b21565b602082019050919050565b60006020820190508181036000830152612b8681612b4a565b9050919050565b7f4974656d206e6f74206163746976650000000000000000000000000000000000600082015250565b6000612bc3600f83611ca5565b9150612bce82612b8d565b602082019050919050565b60006020820190508181036000830152612bf281612bb6565b9050919050565b6000612c0482611ba2565b9150612c0f83611ba2565b9250828201905080821115612c2757612c2661265b565b5b92915050565b60006060820190508181036000830152612c478186611cf1565b90508181036020830152612c5b8185611d8a565b90508181036040830152612c6f8184611d8a565b9050949350505050565b7f496e73756666696369656e742073746f636b0000000000000000000000000000600082015250565b6000612caf601283611ca5565b9150612cba82612c79565b602082019050919050565b60006020820190508181036000830152612cde81612ca2565b9050919050565b7f4e6f7420616e206f70657261746f720000000000000000000000000000000000600082015250565b6000612d1b600f83611ca5565b9150612d2682612ce5565b602082019050919050565b60006020820190508181036000830152612d4a81612d0e565b905091905056fea2646970667358221220131f9a1dbd20fd7ff951f2107b9c9a91a72ade89375f993d5e972b144280c08d64736f6c634300081c0033",
  "linkReferences": {},
  "deployedLinkReferences": {}
}