{
  "_format": "hh-sol-artifact-1",
  "contractName": "Warehouse",
  "sourceName": "contracts/Warehouse-Management.sol",
  "abi": [
    {
      "inputs": [],
      "stateMutability": "nonpayable",
      "type": "constructor"
    },
    {
      "anonymous": false,
      "inputs": [
        {
          "indexed": false,
          "internalType": "uint256",
          "name": "itemId",
          "type": "uint256"
        },
        {
          "indexed": false,
          "internalType": "string",
          "name": "name",
          "type": "string"
        }
      ],
      "name": "ItemAdded",
      "type": "event"
    },
    {
      "anonymous": false,
      "inputs": [
        {
          "indexed": false,
          "internalType": "address",
          "name": "operator",
          "type": "address"
        },
        {
          "indexed": false,
          "internalType": "bool",
          "name": "status",
          "type": "bool"
        }
      ],
      "name": "OperatorChanged",
      "type": "event"
    },
    {
      "anonymous": false,
      "inputs": [
        {
          "indexed": true,
          "internalType": "uint256",
          "name": "timestamp",
          "type": "uint256"
        },
        {
          "indexed": true,
          "internalType": "address",
          "name": "operator",
          "type": "address"
        },
        {
          "indexed": false,
          "internalType": "string",
          "name": "note",
          "type": "string"
        },
        {
          "indexed": false,
          "internalType": "uint256[]",
          "name": "itemIds",
          "type": "uint256[]"
        },
        {
          "indexed": false,
          "internalType": "uint256[]",
          "name": "amounts",
          "type": "uint256[]"
        }
      ],
      "name": "StockCheckedIn",
      "type": "event"
    },
    {
      "anonymous": false,
      "inputs": [
        {
          "indexed": true,
          "internalType": "uint256",
          "name": "timestamp",
          "type": "uint256"
        },
        {
          "indexed": true,
          "internalType": "address",
          "name": "operator",
          "type": "address"
        },
        {
          "indexed": false,
          "internalType": "string",
          "name": "note",
          "type": "string"
        },
        {
          "indexed": false,
          "internalType": "uint256[]",
          "name": "itemIds",
          "type": "uint256[]"
        },
        {
          "indexed": false,
          "internalType": "uint256[]",
          "name": "amounts",
          "type": "uint256[]"
        }
      ],
      "name": "StockCheckedOut",
      "type": "event"
    },
    {
      "inputs": [
        {
          "internalType": "string",
          "name": "name",
          "type": "string"
        },
        {
          "internalType": "string",
          "name": "category",
          "type": "string"
        }
      ],
      "name": "addItem",
      "outputs": [],
      "stateMutability": "nonpayable",
      "type": "function"
    },
    {
      "inputs": [
        {
          "internalType": "address",
          "name": "_operator",
          "type": "address"
        }
      ],
      "name": "addOperator",
      "outputs": [],
      "stateMutability": "nonpayable",
      "type": "function"
    },
    {
      "inputs": [],
      "name": "getActiveOperators",
      "outputs": [
        {
          "internalType": "address[]",
          "name": "",
          "type": "address[]"
        }
      ],
      "stateMutability": "view",
      "type": "function"
    },
    {
      "inputs": [],
      "name": "getAllItems",
      "outputs": [
        {
          "components": [
            {
              "internalType": "uint256",
              "name": "id",
              "type": "uint256"
            },
            {
              "internalType": "string",
              "name": "name",
              "type": "string"
            },
            {
              "internalType": "string",
              "name": "category",
              "type": "string"
            },
            {
              "internalType": "uint256",
              "name": "quantity",
              "type": "uint256"
            },
            {
              "internalType": "bool",
              "name": "isActive",
              "type": "bool"
            }
          ],
          "internalType": "struct Warehouse.Item[]",
          "name": "",
          "type": "tuple[]"
        }
      ],
      "stateMutability": "view",
      "type": "function"
    },
    {
      "inputs": [],
      "name": "getAllOperators",
      "outputs": [
        {
          "internalType": "address[]",
          "name": "",
          "type": "address[]"
        }
      ],
      "stateMutability": "view",
      "type": "function"
    },
    {
      "inputs": [
        {
          "internalType": "uint256",
          "name": "itemId",
          "type": "uint256"
        }
      ],
      "name": "getItemById",
      "outputs": [
        {
          "components": [
            {
              "internalType": "uint256",
              "name": "id",
              "type": "uint256"
            },
            {
              "internalType": "string",
              "name": "name",
              "type": "string"
            },
            {
              "internalType": "string",
              "name": "category",
              "type": "string"
            },
            {
              "internalType": "uint256",
              "name": "quantity",
              "type": "uint256"
            },
            {
              "internalType": "bool",
              "name": "isActive",
              "type": "bool"
            }
          ],
          "internalType": "struct Warehouse.Item",
          "name": "",
          "type": "tuple"
        }
      ],
      "stateMutability": "view",
      "type": "function"
    },
    {
      "inputs": [
        {
          "internalType": "uint256",
          "name": "index",
          "type": "uint256"
        }
      ],
      "name": "getLog",
      "outputs": [
        {
          "internalType": "uint256",
          "name": "timestamp",
          "type": "uint256"
        },
        {
          "internalType": "enum Warehouse.Action",
          "name": "action",
          "type": "uint8"
        },
        {
          "internalType": "address",
          "name": "operator",
          "type": "address"
        },
        {
          "internalType": "string",
          "name": "note",
          "type": "string"
        },
        {
          "internalType": "uint256[]",
          "name": "itemIds",
          "type": "uint256[]"
        },
        {
          "internalType": "uint256[]",
          "name": "amounts",
          "type": "uint256[]"
        }
      ],
      "stateMutability": "view",
      "type": "function"
    },
    {
      "inputs": [
        {
          "internalType": "uint256",
          "name": "",
          "type": "uint256"
        }
      ],
      "name": "items",
      "outputs": [
        {
          "internalType": "uint256",
          "name": "id",
          "type": "uint256"
        },
        {
          "internalType": "string",
          "name": "name",
          "type": "string"
        },
        {
          "internalType": "string",
          "name": "category",
          "type": "string"
        },
        {
          "internalType": "uint256",
          "name": "quantity",
          "type": "uint256"
        },
        {
          "internalType": "bool",
          "name": "isActive",
          "type": "bool"
        }
      ],
      "stateMutability": "view",
      "type": "function"
    },
    {
      "inputs": [
        {
          "internalType": "uint256",
          "name": "",
          "type": "uint256"
        }
      ],
      "name": "logs",
      "outputs": [
        {
          "internalType": "uint256",
          "name": "timestamp",
          "type": "uint256"
        },
        {
          "internalType": "enum Warehouse.Action",
          "name": "action",
          "type": "uint8"
        },
        {
          "internalType": "address",
          "name": "operator",
          "type": "address"
        },
        {
          "internalType": "string",
          "name": "note",
          "type": "string"
        }
      ],
      "stateMutability": "view",
      "type": "function"
    },
    {
      "inputs": [
        {
          "internalType": "address",
          "name": "",
          "type": "address"
        }
      ],
      "name": "operators",
      "outputs": [
        {
          "internalType": "bool",
          "name": "",
          "type": "bool"
        }
      ],
      "stateMutability": "view",
      "type": "function"
    },
    {
      "inputs": [],
      "name": "owner",
      "outputs": [
        {
          "internalType": "address",
          "name": "",
          "type": "address"
        }
      ],
      "stateMutability": "view",
      "type": "function"
    },
    {
      "inputs": [
        {
          "internalType": "address",
          "name": "_operator",
          "type": "address"
        }
      ],
      "name": "removeOperator",
      "outputs": [],
      "stateMutability": "nonpayable",
      "type": "function"
    },
    {
      "inputs": [
        {
          "internalType": "uint256[]",
          "name": "itemIds",
          "type": "uint256[]"
        },
        {
          "internalType": "uint256[]",
          "name": "amounts",
          "type": "uint256[]"
        },
        {
          "internalType": "string",
          "name": "note",
          "type": "string"
        }
      ],
      "name": "stockIn",
      "outputs": [],
      "stateMutability": "nonpayable",
      "type": "function"
    },
    {
      "inputs": [
        {
          "internalType": "uint256[]",
          "name": "itemIds",
          "type": "uint256[]"
        },
        {
          "internalType": "uint256[]",
          "name": "amounts",
          "type": "uint256[]"
        },
        {
          "internalType": "string",
          "name": "note",
          "type": "string"
        }
      ],
      "name": "stockOut",
      "outputs": [],
      "stateMutability": "nonpayable",
      "type": "function"
    }
  ],
  "bytecode": "0x608060405260018055348015601357600080fd5b50336000806101000a81548173ffffffffffffffffffffffffffffffffffffffff021916908373ffffffffffffffffffffffffffffffffffffffff160217905550612ea1806100636000396000f3fe608060405234801561001057600080fd5b50600436106100ea5760003560e01c8063a6c2ef061161008c578063bfb231d211610066578063bfb231d21461023a578063cd2f07101461026e578063d911c6321461029e578063e79899bd146102bc576100ea565b8063a6c2ef06146101e6578063a97c655114610202578063ac8a584a1461021e576100ea565b806364bdc67e116100c857806364bdc67e146101725780637ed8a719146101905780638da5cb5b146101ac5780639870d7fe146101ca576100ea565b806313e7c9d8146100ef5780633206b2c61461011f5780634ba1d6aa14610154575b600080fd5b61010960048036038101906101049190611c3e565b6102ef565b6040516101169190611c86565b60405180910390f35b61013960048036038101906101349190611cd7565b61030f565b60405161014b96959493929190611ee7565b60405180910390f35b61015c6105c0565b60405161016991906120f5565b60405180910390f35b61017a6107e8565b60405161018791906121d5565b60405180910390f35b6101aa60048036038101906101a5919061232c565b610a46565b005b6101b4610bd0565b6040516101c191906123a4565b60405180910390f35b6101e460048036038101906101df9190611c3e565b610bf4565b005b61020060048036038101906101fb9190612487565b610ea7565b005b61021c60048036038101906102179190612487565b6111f2565b005b61023860048036038101906102339190611c3e565b611596565b005b610254600480360381019061024f9190611cd7565b611745565b60405161026595949392919061252e565b60405180910390f35b61028860048036038101906102839190611cd7565b611898565b604051610295919061260c565b60405180910390f35b6102a6611a18565b6040516102b391906121d5565b60405180910390f35b6102d660048036038101906102d19190611cd7565b611aa6565b6040516102e6949392919061262e565b60405180910390f35b60036020528060005260406000206000915054906101000a900460ff1681565b6000806000606080606060058054905087108061032d575060008710155b61036c576040517f08c379a0000000000000000000000000000000000000000000000000000000008152600401610363906126c6565b60405180910390fd5b600060058881548110610382576103816126e6565b5b906000526020600020906004020190506000816001018054905090508067ffffffffffffffff8111156103b8576103b7612201565b5b6040519080825280602002602001820160405280156103e65781602001602082028036833780820191505090505b5093508067ffffffffffffffff81111561040357610402612201565b5b6040519080825280602002602001820160405280156104315781602001602082028036833780820191505090505b50925060005b818110156104da57826001018181548110610455576104546126e6565b5b90600052602060002090600202016000015485828151811061047a576104796126e6565b5b60200260200101818152505082600101818154811061049c5761049b6126e6565b5b9060005260206000209060020201600101548482815181106104c1576104c06126e6565b5b6020026020010181815250508080600101915050610437565b5081600001548260020160009054906101000a900460ff168360020160019054906101000a900473ffffffffffffffffffffffffffffffffffffffff1684600301878782805461052990612744565b80601f016020809104026020016040519081016040528092919081815260200182805461055590612744565b80156105a25780601f10610577576101008083540402835291602001916105a2565b820191906000526020600020905b81548152906001019060200180831161058557829003601f168201915b50505050509250975097509750975097509750505091939550919395565b60606000600180546105d291906127a4565b67ffffffffffffffff8111156105eb576105ea612201565b5b60405190808252806020026020018201604052801561062457816020015b610611611b9b565b8152602001906001900390816106095790505b5090506000600190505b6001548110156107e057600260008281526020019081526020016000206040518060a00160405290816000820154815260200160018201805461067090612744565b80601f016020809104026020016040519081016040528092919081815260200182805461069c90612744565b80156106e95780601f106106be576101008083540402835291602001916106e9565b820191906000526020600020905b8154815290600101906020018083116106cc57829003601f168201915b5050505050815260200160028201805461070290612744565b80601f016020809104026020016040519081016040528092919081815260200182805461072e90612744565b801561077b5780601f106107505761010080835404028352916020019161077b565b820191906000526020600020905b81548152906001019060200180831161075e57829003601f168201915b50505050508152602001600382015481526020016004820160009054906101000a900460ff161515151581525050826001836107b791906127a4565b815181106107c8576107c76126e6565b5b6020026020010181905250808060010191505061062e565b508091505090565b60606000805b6004805490508110156108a7576003600060048381548110610813576108126126e6565b5b9060005260206000200160009054906101000a900473ffffffffffffffffffffffffffffffffffffffff1673ffffffffffffffffffffffffffffffffffffffff1673ffffffffffffffffffffffffffffffffffffffff16815260200190815260200160002060009054906101000a900460ff161561089a578180610896906127d8565b9250505b80806001019150506107ee565b5060008167ffffffffffffffff8111156108c4576108c3612201565b5b6040519080825280602002602001820160405280156108f25781602001602082028036833780820191505090505b5090506000805b600480549050811015610a3c57600360006004838154811061091e5761091d6126e6565b5b9060005260206000200160009054906101000a900473ffffffffffffffffffffffffffffffffffffffff1673ffffffffffffffffffffffffffffffffffffffff1673ffffffffffffffffffffffffffffffffffffffff16815260200190815260200160002060009054906101000a900460ff1615610a2f57600481815481106109aa576109a96126e6565b5b9060005260206000200160009054906101000a900473ffffffffffffffffffffffffffffffffffffffff168383806109e1906127d8565b9450815181106109f4576109f36126e6565b5b602002602001019073ffffffffffffffffffffffffffffffffffffffff16908173ffffffffffffffffffffffffffffffffffffffff16815250505b80806001019150506108f9565b5081935050505090565b60008054906101000a900473ffffffffffffffffffffffffffffffffffffffff1673ffffffffffffffffffffffffffffffffffffffff163373ffffffffffffffffffffffffffffffffffffffff1614610ad4576040517f08c379a0000000000000000000000000000000000000000000000000000000008152600401610acb9061286c565b60405180910390fd5b6040518060a0016040528060015481526020018381526020018281526020016000815260200160011515815250600260006001548152602001908152602001600020600082015181600001556020820151816001019081610b359190612a38565b506040820151816002019081610b4b9190612a38565b506060820151816003015560808201518160040160006101000a81548160ff0219169083151502179055509050507f78d68ba0e8c23b92e7c700d99efed2719520cbd4af845b2c03ae251f9cdf3d5260015483604051610bac929190612b0a565b60405180910390a160016000815480929190610bc7906127d8565b91905055505050565b60008054906101000a900473ffffffffffffffffffffffffffffffffffffffff1681565b60008054906101000a900473ffffffffffffffffffffffffffffffffffffffff1673ffffffffffffffffffffffffffffffffffffffff163373ffffffffffffffffffffffffffffffffffffffff1614610c82576040517f08c379a0000000000000000000000000000000000000000000000000000000008152600401610c799061286c565b60405180910390fd5b600360008273ffffffffffffffffffffffffffffffffffffffff1673ffffffffffffffffffffffffffffffffffffffff16815260200190815260200160002060009054906101000a900460ff1615610d0f576040517f08c379a0000000000000000000000000000000000000000000000000000000008152600401610d0690612b86565b60405180910390fd5b6001600360008373ffffffffffffffffffffffffffffffffffffffff1673ffffffffffffffffffffffffffffffffffffffff16815260200190815260200160002060006101000a81548160ff0219169083151502179055506000805b600480549050811015610dff578273ffffffffffffffffffffffffffffffffffffffff1660048281548110610da357610da26126e6565b5b9060005260206000200160009054906101000a900473ffffffffffffffffffffffffffffffffffffffff1673ffffffffffffffffffffffffffffffffffffffff1603610df25760019150610dff565b8080600101915050610d6b565b5080610e69576004829080600181540180825580915050600190039060005260206000200160009091909190916101000a81548173ffffffffffffffffffffffffffffffffffffffff021916908373ffffffffffffffffffffffffffffffffffffffff1602179055505b7f193de8d500b5cb7b720089b258a39e9c1d0b840019a73ae7c51c3f9101732b02826001604051610e9b929190612ba6565b60405180910390a15050565b600360003373ffffffffffffffffffffffffffffffffffffffff1673ffffffffffffffffffffffffffffffffffffffff16815260200190815260200160002060009054906101000a900460ff16610f33576040517f08c379a0000000000000000000000000000000000000000000000000000000008152600401610f2a90612c1b565b60405180910390fd5b8151835114610f77576040517f08c379a0000000000000000000000000000000000000000000000000000000008152600401610f6e90612c87565b60405180910390fd5b600560018160018154018082558091505003906000526020600020905050600060056001600580549050610fab91906127a4565b81548110610fbc57610fbb6126e6565b5b9060005260206000209060040201905042816000018190555060008160020160006101000a81548160ff02191690836001811115610ffd57610ffc611d13565b5b0217905550338160020160016101000a81548173ffffffffffffffffffffffffffffffffffffffff021916908373ffffffffffffffffffffffffffffffffffffffff160217905550818160030190816110569190612a38565b5060005b8451811015611198576000858281518110611078576110776126e6565b5b602002602001015190506000858381518110611097576110966126e6565b5b602002602001015190506002600083815260200190815260200160002060040160009054906101000a900460ff16611104576040517f08c379a00000000000000000000000000000000000000000000000000000000081526004016110fb90612cf3565b60405180910390fd5b8060026000848152602001908152602001600020600301600082825461112a9190612d13565b92505081905550836001016040518060400160405280848152602001838152509080600181540180825580915050600190039060005260206000209060020201600090919091909150600082015181600001556020820151816001015550505050808060010191505061105a565b503373ffffffffffffffffffffffffffffffffffffffff16427fd6e6f374ba54c0da4686fb95bab98a1747055413ccedd0c19883c92bfe2a21a68487876040516111e493929190612d47565b60405180910390a350505050565b600360003373ffffffffffffffffffffffffffffffffffffffff1673ffffffffffffffffffffffffffffffffffffffff16815260200190815260200160002060009054906101000a900460ff1661127e576040517f08c379a000000000000000000000000000000000000000000000000000000000815260040161127590612c1b565b60405180910390fd5b81518351146112c2576040517f08c379a00000000000000000000000000000000000000000000000000000000081526004016112b990612c87565b60405180910390fd5b6005600181600181540180825580915050039060005260206000209050506000600560016005805490506112f691906127a4565b81548110611307576113066126e6565b5b9060005260206000209060040201905042816000018190555060018160020160006101000a81548160ff0219169083600181111561134857611347611d13565b5b0217905550338160020160016101000a81548173ffffffffffffffffffffffffffffffffffffffff021916908373ffffffffffffffffffffffffffffffffffffffff160217905550818160030190816113a19190612a38565b5060005b845181101561153c5760008582815181106113c3576113c26126e6565b5b6020026020010151905060008583815181106113e2576113e16126e6565b5b602002602001015190506002600083815260200190815260200160002060040160009054906101000a900460ff1661144f576040517f08c379a000000000000000000000000000000000000000000000000000000000815260040161144690612cf3565b60405180910390fd5b80600260008481526020019081526020016000206003015410156114a8576040517f08c379a000000000000000000000000000000000000000000000000000000000815260040161149f90612ddf565b60405180910390fd5b806002600084815260200190815260200160002060030160008282546114ce91906127a4565b9250508190555083600101604051806040016040528084815260200183815250908060018154018082558091505060019003906000526020600020906002020160009091909190915060008201518160000155602082015181600101555050505080806001019150506113a5565b503373ffffffffffffffffffffffffffffffffffffffff16427fc4ee83de1e0159336d182515e213b3b9b4961450a17963e92d762b466fdc726684878760405161158893929190612d47565b60405180910390a350505050565b60008054906101000a900473ffffffffffffffffffffffffffffffffffffffff1673ffffffffffffffffffffffffffffffffffffffff163373ffffffffffffffffffffffffffffffffffffffff1614611624576040517f08c379a000000000000000000000000000000000000000000000000000000000815260040161161b9061286c565b60405180910390fd5b600360008273ffffffffffffffffffffffffffffffffffffffff1673ffffffffffffffffffffffffffffffffffffffff16815260200190815260200160002060009054906101000a900460ff166116b0576040517f08c379a00000000000000000000000000000000000000000000000000000000081526004016116a790612e4b565b60405180910390fd5b6000600360008373ffffffffffffffffffffffffffffffffffffffff1673ffffffffffffffffffffffffffffffffffffffff16815260200190815260200160002060006101000a81548160ff0219169083151502179055507f193de8d500b5cb7b720089b258a39e9c1d0b840019a73ae7c51c3f9101732b0281600060405161173a929190612ba6565b60405180910390a150565b600260205280600052604060002060009150905080600001549080600101805461176e90612744565b80601f016020809104026020016040519081016040528092919081815260200182805461179a90612744565b80156117e75780601f106117bc576101008083540402835291602001916117e7565b820191906000526020600020905b8154815290600101906020018083116117ca57829003601f168201915b5050505050908060020180546117fc90612744565b80601f016020809104026020016040519081016040528092919081815260200182805461182890612744565b80156118755780601f1061184a57610100808354040283529160200191611875565b820191906000526020600020905b81548152906001019060200180831161185857829003601f168201915b5050505050908060030154908060040160009054906101000a900460ff16905085565b6118a0611b9b565b600260008381526020019081526020016000206040518060a0016040529081600082015481526020016001820180546118d890612744565b80601f016020809104026020016040519081016040528092919081815260200182805461190490612744565b80156119515780601f1061192657610100808354040283529160200191611951565b820191906000526020600020905b81548152906001019060200180831161193457829003601f168201915b5050505050815260200160028201805461196a90612744565b80601f016020809104026020016040519081016040528092919081815260200182805461199690612744565b80156119e35780601f106119b8576101008083540402835291602001916119e3565b820191906000526020600020905b8154815290600101906020018083116119c657829003601f168201915b50505050508152602001600382015481526020016004820160009054906101000a900460ff1615151515815250509050919050565b60606004805480602002602001604051908101604052809291908181526020018280548015611a9c57602002820191906000526020600020905b8160009054906101000a900473ffffffffffffffffffffffffffffffffffffffff1673ffffffffffffffffffffffffffffffffffffffff1681526020019060010190808311611a52575b5050505050905090565b60058181548110611ab657600080fd5b90600052602060002090600402016000915090508060000154908060020160009054906101000a900460ff16908060020160019054906101000a900473ffffffffffffffffffffffffffffffffffffffff1690806003018054611b1890612744565b80601f0160208091040260200160405190810160405280929190818152602001828054611b4490612744565b8015611b915780601f10611b6657610100808354040283529160200191611b91565b820191906000526020600020905b815481529060010190602001808311611b7457829003601f168201915b5050505050905084565b6040518060a00160405280600081526020016060815260200160608152602001600081526020016000151581525090565b6000604051905090565b600080fd5b600080fd5b600073ffffffffffffffffffffffffffffffffffffffff82169050919050565b6000611c0b82611be0565b9050919050565b611c1b81611c00565b8114611c2657600080fd5b50565b600081359050611c3881611c12565b92915050565b600060208284031215611c5457611c53611bd6565b5b6000611c6284828501611c29565b91505092915050565b60008115159050919050565b611c8081611c6b565b82525050565b6000602082019050611c9b6000830184611c77565b92915050565b6000819050919050565b611cb481611ca1565b8114611cbf57600080fd5b50565b600081359050611cd181611cab565b92915050565b600060208284031215611ced57611cec611bd6565b5b6000611cfb84828501611cc2565b91505092915050565b611d0d81611ca1565b82525050565b7f4e487b7100000000000000000000000000000000000000000000000000000000600052602160045260246000fd5b60028110611d5357611d52611d13565b5b50565b6000819050611d6482611d42565b919050565b6000611d7482611d56565b9050919050565b611d8481611d69565b82525050565b611d9381611c00565b82525050565b600081519050919050565b600082825260208201905092915050565b60005b83811015611dd3578082015181840152602081019050611db8565b60008484015250505050565b6000601f19601f8301169050919050565b6000611dfb82611d99565b611e058185611da4565b9350611e15818560208601611db5565b611e1e81611ddf565b840191505092915050565b600081519050919050565b600082825260208201905092915050565b6000819050602082019050919050565b611e5e81611ca1565b82525050565b6000611e708383611e55565b60208301905092915050565b6000602082019050919050565b6000611e9482611e29565b611e9e8185611e34565b9350611ea983611e45565b8060005b83811015611eda578151611ec18882611e64565b9750611ecc83611e7c565b925050600181019050611ead565b5085935050505092915050565b600060c082019050611efc6000830189611d04565b611f096020830188611d7b565b611f166040830187611d8a565b8181036060830152611f288186611df0565b90508181036080830152611f3c8185611e89565b905081810360a0830152611f508184611e89565b9050979650505050505050565b600081519050919050565b600082825260208201905092915050565b6000819050602082019050919050565b600082825260208201905092915050565b6000611fa582611d99565b611faf8185611f89565b9350611fbf818560208601611db5565b611fc881611ddf565b840191505092915050565b611fdc81611c6b565b82525050565b600060a083016000830151611ffa6000860182611e55565b50602083015184820360208601526120128282611f9a565b9150506040830151848203604086015261202c8282611f9a565b91505060608301516120416060860182611e55565b5060808301516120546080860182611fd3565b508091505092915050565b600061206b8383611fe2565b905092915050565b6000602082019050919050565b600061208b82611f5d565b6120958185611f68565b9350836020820285016120a785611f79565b8060005b858110156120e357848403895281516120c4858261205f565b94506120cf83612073565b925060208a019950506001810190506120ab565b50829750879550505050505092915050565b6000602082019050818103600083015261210f8184612080565b905092915050565b600081519050919050565b600082825260208201905092915050565b6000819050602082019050919050565b61214c81611c00565b82525050565b600061215e8383612143565b60208301905092915050565b6000602082019050919050565b600061218282612117565b61218c8185612122565b935061219783612133565b8060005b838110156121c85781516121af8882612152565b97506121ba8361216a565b92505060018101905061219b565b5085935050505092915050565b600060208201905081810360008301526121ef8184612177565b905092915050565b600080fd5b600080fd5b7f4e487b7100000000000000000000000000000000000000000000000000000000600052604160045260246000fd5b61223982611ddf565b810181811067ffffffffffffffff8211171561225857612257612201565b5b80604052505050565b600061226b611bcc565b90506122778282612230565b919050565b600067ffffffffffffffff82111561229757612296612201565b5b6122a082611ddf565b9050602081019050919050565b82818337600083830152505050565b60006122cf6122ca8461227c565b612261565b9050828152602081018484840111156122eb576122ea6121fc565b5b6122f68482856122ad565b509392505050565b600082601f830112612313576123126121f7565b5b81356123238482602086016122bc565b91505092915050565b6000806040838503121561234357612342611bd6565b5b600083013567ffffffffffffffff81111561236157612360611bdb565b5b61236d858286016122fe565b925050602083013567ffffffffffffffff81111561238e5761238d611bdb565b5b61239a858286016122fe565b9150509250929050565b60006020820190506123b96000830184611d8a565b92915050565b600067ffffffffffffffff8211156123da576123d9612201565b5b602082029050602081019050919050565b600080fd5b60006124036123fe846123bf565b612261565b90508083825260208201905060208402830185811115612426576124256123eb565b5b835b8181101561244f578061243b8882611cc2565b845260208401935050602081019050612428565b5050509392505050565b600082601f83011261246e5761246d6121f7565b5b813561247e8482602086016123f0565b91505092915050565b6000806000606084860312156124a05761249f611bd6565b5b600084013567ffffffffffffffff8111156124be576124bd611bdb565b5b6124ca86828701612459565b935050602084013567ffffffffffffffff8111156124eb576124ea611bdb565b5b6124f786828701612459565b925050604084013567ffffffffffffffff81111561251857612517611bdb565b5b612524868287016122fe565b9150509250925092565b600060a0820190506125436000830188611d04565b81810360208301526125558187611df0565b905081810360408301526125698186611df0565b90506125786060830185611d04565b6125856080830184611c77565b9695505050505050565b600060a0830160008301516125a76000860182611e55565b50602083015184820360208601526125bf8282611f9a565b915050604083015184820360408601526125d98282611f9a565b91505060608301516125ee6060860182611e55565b5060808301516126016080860182611fd3565b508091505092915050565b60006020820190508181036000830152612626818461258f565b905092915050565b60006080820190506126436000830187611d04565b6126506020830186611d7b565b61265d6040830185611d8a565b818103606083015261266f8184611df0565b905095945050505050565b7f4c6f6720696e646578206f7574206f6620626f756e6473000000000000000000600082015250565b60006126b0601783611da4565b91506126bb8261267a565b602082019050919050565b600060208201905081810360008301526126df816126a3565b9050919050565b7f4e487b7100000000000000000000000000000000000000000000000000000000600052603260045260246000fd5b7f4e487b7100000000000000000000000000000000000000000000000000000000600052602260045260246000fd5b6000600282049050600182168061275c57607f821691505b60208210810361276f5761276e612715565b5b50919050565b7f4e487b7100000000000000000000000000000000000000000000000000000000600052601160045260246000fd5b60006127af82611ca1565b91506127ba83611ca1565b92508282039050818111156127d2576127d1612775565b5b92915050565b60006127e382611ca1565b91507fffffffffffffffffffffffffffffffffffffffffffffffffffffffffffffffff820361281557612814612775565b5b600182019050919050565b7f4e6f74206f776e65720000000000000000000000000000000000000000000000600082015250565b6000612856600983611da4565b915061286182612820565b602082019050919050565b6000602082019050818103600083015261288581612849565b9050919050565b60008190508160005260206000209050919050565b60006020601f8301049050919050565b600082821b905092915050565b6000600883026128ee7fffffffffffffffffffffffffffffffffffffffffffffffffffffffffffffffff826128b1565b6128f886836128b1565b95508019841693508086168417925050509392505050565b6000819050919050565b600061293561293061292b84611ca1565b612910565b611ca1565b9050919050565b6000819050919050565b61294f8361291a565b61296361295b8261293c565b8484546128be565b825550505050565b600090565b61297861296b565b612983818484612946565b505050565b5b818110156129a75761299c600082612970565b600181019050612989565b5050565b601f8211156129ec576129bd8161288c565b6129c6846128a1565b810160208510156129d5578190505b6129e96129e1856128a1565b830182612988565b50505b505050565b600082821c905092915050565b6000612a0f600019846008026129f1565b1980831691505092915050565b6000612a2883836129fe565b9150826002028217905092915050565b612a4182611d99565b67ffffffffffffffff811115612a5a57612a59612201565b5b612a648254612744565b612a6f8282856129ab565b600060209050601f831160018114612aa25760008415612a90578287015190505b612a9a8582612a1c565b865550612b02565b601f198416612ab08661288c565b60005b82811015612ad857848901518255600182019150602085019450602081019050612ab3565b86831015612af55784890151612af1601f8916826129fe565b8355505b6001600288020188555050505b505050505050565b6000604082019050612b1f6000830185611d04565b8181036020830152612b318184611df0565b90509392505050565b7f416c7265616479206f70657261746f7200000000000000000000000000000000600082015250565b6000612b70601083611da4565b9150612b7b82612b3a565b602082019050919050565b60006020820190508181036000830152612b9f81612b63565b9050919050565b6000604082019050612bbb6000830185611d8a565b612bc86020830184611c77565b9392505050565b7f4e6f74206f70657261746f720000000000000000000000000000000000000000600082015250565b6000612c05600c83611da4565b9150612c1082612bcf565b602082019050919050565b60006020820190508181036000830152612c3481612bf8565b9050919050565b7f496e707574206172726179206c656e677468206d69736d617463680000000000600082015250565b6000612c71601b83611da4565b9150612c7c82612c3b565b602082019050919050565b60006020820190508181036000830152612ca081612c64565b9050919050565b7f4974656d206e6f74206163746976650000000000000000000000000000000000600082015250565b6000612cdd600f83611da4565b9150612ce882612ca7565b602082019050919050565b60006020820190508181036000830152612d0c81612cd0565b9050919050565b6000612d1e82611ca1565b9150612d2983611ca1565b9250828201905080821115612d4157612d40612775565b5b92915050565b60006060820190508181036000830152612d618186611df0565b90508181036020830152612d758185611e89565b90508181036040830152612d898184611e89565b9050949350505050565b7f496e73756666696369656e742073746f636b0000000000000000000000000000600082015250565b6000612dc9601283611da4565b9150612dd482612d93565b602082019050919050565b60006020820190508181036000830152612df881612dbc565b9050919050565b7f4e6f7420616e206f70657261746f720000000000000000000000000000000000600082015250565b6000612e35600f83611da4565b9150612e4082612dff565b602082019050919050565b60006020820190508181036000830152612e6481612e28565b905091905056fea2646970667358221220d8656ca90de0833a012f8f35f2873a1654be0c38e7aa255192bc81684dc17e9864736f6c634300081c0033",
  "linkReferences": {},
  "deployedLinkReferences": {}
}