{
  "_format": "hh-sol-artifact-1",
  "contractName": "Warehouse",
  "sourceName": "contracts/Warehouse-Management.sol",
  "abi": [
    {
      "inputs": [],
      "stateMutability": "nonpayable",
      "type": "constructor"
    },
    {
      "anonymous": false,
      "inputs": [
        {
          "indexed": false,
          "internalType": "uint256",
          "name": "itemId",
          "type": "uint256"
        },
        {
          "indexed": false,
          "internalType": "string",
          "name": "name",
          "type": "string"
        }
      ],
      "name": "ItemAdded",
      "type": "event"
    },
    {
      "anonymous": false,
      "inputs": [
        {
          "indexed": false,
          "internalType": "address",
          "name": "operator",
          "type": "address"
        },
        {
          "indexed": false,
          "internalType": "bool",
          "name": "status",
          "type": "bool"
        }
      ],
      "name": "OperatorChanged",
      "type": "event"
    },
    {
      "anonymous": false,
      "inputs": [
        {
          "indexed": true,
          "internalType": "uint256",
          "name": "timestamp",
          "type": "uint256"
        },
        {
          "indexed": true,
          "internalType": "address",
          "name": "operator",
          "type": "address"
        },
        {
          "indexed": false,
          "internalType": "string",
          "name": "note",
          "type": "string"
        },
        {
          "indexed": false,
          "internalType": "uint256[]",
          "name": "itemIds",
          "type": "uint256[]"
        },
        {
          "indexed": false,
          "internalType": "uint256[]",
          "name": "amounts",
          "type": "uint256[]"
        }
      ],
      "name": "StockCheckedIn",
      "type": "event"
    },
    {
      "anonymous": false,
      "inputs": [
        {
          "indexed": true,
          "internalType": "uint256",
          "name": "timestamp",
          "type": "uint256"
        },
        {
          "indexed": true,
          "internalType": "address",
          "name": "operator",
          "type": "address"
        },
        {
          "indexed": false,
          "internalType": "string",
          "name": "note",
          "type": "string"
        },
        {
          "indexed": false,
          "internalType": "uint256[]",
          "name": "itemIds",
          "type": "uint256[]"
        },
        {
          "indexed": false,
          "internalType": "uint256[]",
          "name": "amounts",
          "type": "uint256[]"
        }
      ],
      "name": "StockCheckedOut",
      "type": "event"
    },
    {
      "inputs": [
        {
          "internalType": "string",
          "name": "name",
          "type": "string"
        },
        {
          "internalType": "string",
          "name": "category",
          "type": "string"
        }
      ],
      "name": "addItem",
      "outputs": [],
      "stateMutability": "nonpayable",
      "type": "function"
    },
    {
      "inputs": [
        {
          "internalType": "address",
          "name": "_operator",
          "type": "address"
        }
      ],
      "name": "addOperator",
      "outputs": [],
      "stateMutability": "nonpayable",
      "type": "function"
    },
    {
      "inputs": [],
      "name": "getActiveOperators",
      "outputs": [
        {
          "internalType": "address[]",
          "name": "",
          "type": "address[]"
        }
      ],
      "stateMutability": "view",
      "type": "function"
    },
    {
      "inputs": [],
      "name": "getAllItems",
      "outputs": [
        {
          "components": [
            {
              "internalType": "uint256",
              "name": "id",
              "type": "uint256"
            },
            {
              "internalType": "string",
              "name": "name",
              "type": "string"
            },
            {
              "internalType": "string",
              "name": "category",
              "type": "string"
            },
            {
              "internalType": "uint256",
              "name": "quantity",
              "type": "uint256"
            },
            {
              "internalType": "bool",
              "name": "isActive",
              "type": "bool"
            }
          ],
          "internalType": "struct Warehouse.Item[]",
          "name": "",
          "type": "tuple[]"
        }
      ],
      "stateMutability": "view",
      "type": "function"
    },
    {
      "inputs": [],
      "name": "getAllOperators",
      "outputs": [
        {
          "internalType": "address[]",
          "name": "",
          "type": "address[]"
        }
      ],
      "stateMutability": "view",
      "type": "function"
    },
    {
      "inputs": [
        {
          "internalType": "uint256",
          "name": "itemId",
          "type": "uint256"
        }
      ],
      "name": "getItemById",
      "outputs": [
        {
          "components": [
            {
              "internalType": "uint256",
              "name": "id",
              "type": "uint256"
            },
            {
              "internalType": "string",
              "name": "name",
              "type": "string"
            },
            {
              "internalType": "string",
              "name": "category",
              "type": "string"
            },
            {
              "internalType": "uint256",
              "name": "quantity",
              "type": "uint256"
            },
            {
              "internalType": "bool",
              "name": "isActive",
              "type": "bool"
            }
          ],
          "internalType": "struct Warehouse.Item",
          "name": "",
          "type": "tuple"
        }
      ],
      "stateMutability": "view",
      "type": "function"
    },
    {
      "inputs": [
        {
          "internalType": "uint256",
          "name": "index",
          "type": "uint256"
        }
      ],
      "name": "getLog",
      "outputs": [
        {
          "internalType": "uint256",
          "name": "timestamp",
          "type": "uint256"
        },
        {
          "internalType": "enum Warehouse.Action",
          "name": "action",
          "type": "uint8"
        },
        {
          "internalType": "address",
          "name": "operator",
          "type": "address"
        },
        {
          "internalType": "string",
          "name": "note",
          "type": "string"
        },
        {
          "internalType": "uint256[]",
          "name": "itemIds",
          "type": "uint256[]"
        },
        {
          "internalType": "uint256[]",
          "name": "amounts",
          "type": "uint256[]"
        }
      ],
      "stateMutability": "view",
      "type": "function"
    },
    {
      "inputs": [],
      "name": "getTodayStockInOut",
      "outputs": [
        {
          "internalType": "uint256",
          "name": "totalIn",
          "type": "uint256"
        },
        {
          "internalType": "uint256",
          "name": "totalOut",
          "type": "uint256"
        }
      ],
      "stateMutability": "view",
      "type": "function"
    },
    {
      "inputs": [
        {
          "internalType": "uint256",
          "name": "",
          "type": "uint256"
        }
      ],
      "name": "items",
      "outputs": [
        {
          "internalType": "uint256",
          "name": "id",
          "type": "uint256"
        },
        {
          "internalType": "string",
          "name": "name",
          "type": "string"
        },
        {
          "internalType": "string",
          "name": "category",
          "type": "string"
        },
        {
          "internalType": "uint256",
          "name": "quantity",
          "type": "uint256"
        },
        {
          "internalType": "bool",
          "name": "isActive",
          "type": "bool"
        }
      ],
      "stateMutability": "view",
      "type": "function"
    },
    {
      "inputs": [
        {
          "internalType": "uint256",
          "name": "",
          "type": "uint256"
        }
      ],
      "name": "logs",
      "outputs": [
        {
          "internalType": "uint256",
          "name": "timestamp",
          "type": "uint256"
        },
        {
          "internalType": "enum Warehouse.Action",
          "name": "action",
          "type": "uint8"
        },
        {
          "internalType": "address",
          "name": "operator",
          "type": "address"
        },
        {
          "internalType": "string",
          "name": "note",
          "type": "string"
        }
      ],
      "stateMutability": "view",
      "type": "function"
    },
    {
      "inputs": [
        {
          "internalType": "address",
          "name": "",
          "type": "address"
        }
      ],
      "name": "operators",
      "outputs": [
        {
          "internalType": "bool",
          "name": "",
          "type": "bool"
        }
      ],
      "stateMutability": "view",
      "type": "function"
    },
    {
      "inputs": [],
      "name": "owner",
      "outputs": [
        {
          "internalType": "address",
          "name": "",
          "type": "address"
        }
      ],
      "stateMutability": "view",
      "type": "function"
    },
    {
      "inputs": [
        {
          "internalType": "address",
          "name": "_operator",
          "type": "address"
        }
      ],
      "name": "removeOperator",
      "outputs": [],
      "stateMutability": "nonpayable",
      "type": "function"
    },
    {
      "inputs": [
        {
          "internalType": "uint256[]",
          "name": "itemIds",
          "type": "uint256[]"
        },
        {
          "internalType": "uint256[]",
          "name": "amounts",
          "type": "uint256[]"
        },
        {
          "internalType": "string",
          "name": "note",
          "type": "string"
        }
      ],
      "name": "stockIn",
      "outputs": [],
      "stateMutability": "nonpayable",
      "type": "function"
    },
    {
      "inputs": [
        {
          "internalType": "uint256[]",
          "name": "itemIds",
          "type": "uint256[]"
        },
        {
          "internalType": "uint256[]",
          "name": "amounts",
          "type": "uint256[]"
        },
        {
          "internalType": "string",
          "name": "note",
          "type": "string"
        }
      ],
      "name": "stockOut",
      "outputs": [],
      "stateMutability": "nonpayable",
      "type": "function"
    }
  ],
  "bytecode": "0x608060405260018055348015601357600080fd5b50336000806101000a81548173ffffffffffffffffffffffffffffffffffffffff021916908373ffffffffffffffffffffffffffffffffffffffff16021790555061313c806100636000396000f3fe608060405234801561001057600080fd5b50600436106100f55760003560e01c80639870d7fe11610097578063bfb231d211610066578063bfb231d214610264578063cd2f071014610298578063d911c632146102c8578063e79899bd146102e6576100f5565b80639870d7fe146101f4578063a6c2ef0614610210578063a97c65511461022c578063ac8a584a14610248576100f5565b806364bdc67e116100d357806364bdc67e1461017d5780636cc54af21461019b5780637ed8a719146101ba5780638da5cb5b146101d6576100f5565b806313e7c9d8146100fa5780633206b2c61461012a5780634ba1d6aa1461015f575b600080fd5b610114600480360381019061010f9190611e50565b610319565b6040516101219190611e98565b60405180910390f35b610144600480360381019061013f9190611ee9565b610339565b604051610156969594939291906120f9565b60405180910390f35b6101676105ea565b6040516101749190612307565b60405180910390f35b610185610812565b60405161019291906123e7565b60405180910390f35b6101a3610a70565b6040516101b1929190612409565b60405180910390f35b6101d460048036038101906101cf9190612567565b610c58565b005b6101de610de2565b6040516101eb91906125df565b60405180910390f35b61020e60048036038101906102099190611e50565b610e06565b005b61022a600480360381019061022591906126c2565b6110b9565b005b610246600480360381019061024191906126c2565b611404565b005b610262600480360381019061025d9190611e50565b6117a8565b005b61027e60048036038101906102799190611ee9565b611957565b60405161028f959493929190612769565b60405180910390f35b6102b260048036038101906102ad9190611ee9565b611aaa565b6040516102bf9190612847565b60405180910390f35b6102d0611c2a565b6040516102dd91906123e7565b60405180910390f35b61030060048036038101906102fb9190611ee9565b611cb8565b6040516103109493929190612869565b60405180910390f35b60036020528060005260406000206000915054906101000a900460ff1681565b60008060006060806060600580549050871080610357575060008710155b610396576040517f08c379a000000000000000000000000000000000000000000000000000000000815260040161038d90612901565b60405180910390fd5b6000600588815481106103ac576103ab612921565b5b906000526020600020906004020190506000816001018054905090508067ffffffffffffffff8111156103e2576103e161243c565b5b6040519080825280602002602001820160405280156104105781602001602082028036833780820191505090505b5093508067ffffffffffffffff81111561042d5761042c61243c565b5b60405190808252806020026020018201604052801561045b5781602001602082028036833780820191505090505b50925060005b818110156105045782600101818154811061047f5761047e612921565b5b9060005260206000209060020201600001548582815181106104a4576104a3612921565b5b6020026020010181815250508260010181815481106104c6576104c5612921565b5b9060005260206000209060020201600101548482815181106104eb576104ea612921565b5b6020026020010181815250508080600101915050610461565b5081600001548260020160009054906101000a900460ff168360020160019054906101000a900473ffffffffffffffffffffffffffffffffffffffff168460030187878280546105539061297f565b80601f016020809104026020016040519081016040528092919081815260200182805461057f9061297f565b80156105cc5780601f106105a1576101008083540402835291602001916105cc565b820191906000526020600020905b8154815290600101906020018083116105af57829003601f168201915b50505050509250975097509750975097509750505091939550919395565b60606000600180546105fc91906129df565b67ffffffffffffffff8111156106155761061461243c565b5b60405190808252806020026020018201604052801561064e57816020015b61063b611dad565b8152602001906001900390816106335790505b5090506000600190505b60015481101561080a57600260008281526020019081526020016000206040518060a00160405290816000820154815260200160018201805461069a9061297f565b80601f01602080910402602001604051908101604052809291908181526020018280546106c69061297f565b80156107135780601f106106e857610100808354040283529160200191610713565b820191906000526020600020905b8154815290600101906020018083116106f657829003601f168201915b5050505050815260200160028201805461072c9061297f565b80601f01602080910402602001604051908101604052809291908181526020018280546107589061297f565b80156107a55780601f1061077a576101008083540402835291602001916107a5565b820191906000526020600020905b81548152906001019060200180831161078857829003601f168201915b50505050508152602001600382015481526020016004820160009054906101000a900460ff161515151581525050826001836107e191906129df565b815181106107f2576107f1612921565b5b60200260200101819052508080600101915050610658565b508091505090565b60606000805b6004805490508110156108d157600360006004838154811061083d5761083c612921565b5b9060005260206000200160009054906101000a900473ffffffffffffffffffffffffffffffffffffffff1673ffffffffffffffffffffffffffffffffffffffff1673ffffffffffffffffffffffffffffffffffffffff16815260200190815260200160002060009054906101000a900460ff16156108c45781806108c090612a13565b9250505b8080600101915050610818565b5060008167ffffffffffffffff8111156108ee576108ed61243c565b5b60405190808252806020026020018201604052801561091c5781602001602082028036833780820191505090505b5090506000805b600480549050811015610a6657600360006004838154811061094857610947612921565b5b9060005260206000200160009054906101000a900473ffffffffffffffffffffffffffffffffffffffff1673ffffffffffffffffffffffffffffffffffffffff1673ffffffffffffffffffffffffffffffffffffffff16815260200190815260200160002060009054906101000a900460ff1615610a5957600481815481106109d4576109d3612921565b5b9060005260206000200160009054906101000a900473ffffffffffffffffffffffffffffffffffffffff16838380610a0b90612a13565b945081518110610a1e57610a1d612921565b5b602002602001019073ffffffffffffffffffffffffffffffffffffffff16908173ffffffffffffffffffffffffffffffffffffffff16815250505b8080600101915050610923565b5081935050505090565b60008060006201518042610a849190612a8a565b42610a8f91906129df565b905060005b600580549050811015610c52578160058281548110610ab657610ab5612921565b5b90600052602060002090600402016000015410610c45576000805b60058381548110610ae557610ae4612921565b5b906000526020600020906004020160010180549050811015610b645760058381548110610b1557610b14612921565b5b90600052602060002090600402016001018181548110610b3857610b37612921565b5b90600052602060002090600202016001015482610b559190612abb565b91508080600101915050610ad1565b5060006001811115610b7957610b78611f25565b5b60058381548110610b8d57610b8c612921565b5b906000526020600020906004020160020160009054906101000a900460ff166001811115610bbe57610bbd611f25565b5b03610bd6578085610bcf9190612abb565b9450610c43565b600180811115610be957610be8611f25565b5b60058381548110610bfd57610bfc612921565b5b906000526020600020906004020160020160009054906101000a900460ff166001811115610c2e57610c2d611f25565b5b03610c42578084610c3f9190612abb565b93505b5b505b8080600101915050610a94565b50509091565b60008054906101000a900473ffffffffffffffffffffffffffffffffffffffff1673ffffffffffffffffffffffffffffffffffffffff163373ffffffffffffffffffffffffffffffffffffffff1614610ce6576040517f08c379a0000000000000000000000000000000000000000000000000000000008152600401610cdd90612b3b565b60405180910390fd5b6040518060a0016040528060015481526020018381526020018281526020016000815260200160011515815250600260006001548152602001908152602001600020600082015181600001556020820151816001019081610d479190612d07565b506040820151816002019081610d5d9190612d07565b506060820151816003015560808201518160040160006101000a81548160ff0219169083151502179055509050507f78d68ba0e8c23b92e7c700d99efed2719520cbd4af845b2c03ae251f9cdf3d5260015483604051610dbe929190612dd9565b60405180910390a160016000815480929190610dd990612a13565b91905055505050565b60008054906101000a900473ffffffffffffffffffffffffffffffffffffffff1681565b60008054906101000a900473ffffffffffffffffffffffffffffffffffffffff1673ffffffffffffffffffffffffffffffffffffffff163373ffffffffffffffffffffffffffffffffffffffff1614610e94576040517f08c379a0000000000000000000000000000000000000000000000000000000008152600401610e8b90612b3b565b60405180910390fd5b600360008273ffffffffffffffffffffffffffffffffffffffff1673ffffffffffffffffffffffffffffffffffffffff16815260200190815260200160002060009054906101000a900460ff1615610f21576040517f08c379a0000000000000000000000000000000000000000000000000000000008152600401610f1890612e55565b60405180910390fd5b6001600360008373ffffffffffffffffffffffffffffffffffffffff1673ffffffffffffffffffffffffffffffffffffffff16815260200190815260200160002060006101000a81548160ff0219169083151502179055506000805b600480549050811015611011578273ffffffffffffffffffffffffffffffffffffffff1660048281548110610fb557610fb4612921565b5b9060005260206000200160009054906101000a900473ffffffffffffffffffffffffffffffffffffffff1673ffffffffffffffffffffffffffffffffffffffff16036110045760019150611011565b8080600101915050610f7d565b508061107b576004829080600181540180825580915050600190039060005260206000200160009091909190916101000a81548173ffffffffffffffffffffffffffffffffffffffff021916908373ffffffffffffffffffffffffffffffffffffffff1602179055505b7f193de8d500b5cb7b720089b258a39e9c1d0b840019a73ae7c51c3f9101732b028260016040516110ad929190612e75565b60405180910390a15050565b600360003373ffffffffffffffffffffffffffffffffffffffff1673ffffffffffffffffffffffffffffffffffffffff16815260200190815260200160002060009054906101000a900460ff16611145576040517f08c379a000000000000000000000000000000000000000000000000000000000815260040161113c90612eea565b60405180910390fd5b8151835114611189576040517f08c379a000000000000000000000000000000000000000000000000000000000815260040161118090612f56565b60405180910390fd5b6005600181600181540180825580915050039060005260206000209050506000600560016005805490506111bd91906129df565b815481106111ce576111cd612921565b5b9060005260206000209060040201905042816000018190555060008160020160006101000a81548160ff0219169083600181111561120f5761120e611f25565b5b0217905550338160020160016101000a81548173ffffffffffffffffffffffffffffffffffffffff021916908373ffffffffffffffffffffffffffffffffffffffff160217905550818160030190816112689190612d07565b5060005b84518110156113aa57600085828151811061128a57611289612921565b5b6020026020010151905060008583815181106112a9576112a8612921565b5b602002602001015190506002600083815260200190815260200160002060040160009054906101000a900460ff16611316576040517f08c379a000000000000000000000000000000000000000000000000000000000815260040161130d90612fc2565b60405180910390fd5b8060026000848152602001908152602001600020600301600082825461133c9190612abb565b92505081905550836001016040518060400160405280848152602001838152509080600181540180825580915050600190039060005260206000209060020201600090919091909150600082015181600001556020820151816001015550505050808060010191505061126c565b503373ffffffffffffffffffffffffffffffffffffffff16427fd6e6f374ba54c0da4686fb95bab98a1747055413ccedd0c19883c92bfe2a21a68487876040516113f693929190612fe2565b60405180910390a350505050565b600360003373ffffffffffffffffffffffffffffffffffffffff1673ffffffffffffffffffffffffffffffffffffffff16815260200190815260200160002060009054906101000a900460ff16611490576040517f08c379a000000000000000000000000000000000000000000000000000000000815260040161148790612eea565b60405180910390fd5b81518351146114d4576040517f08c379a00000000000000000000000000000000000000000000000000000000081526004016114cb90612f56565b60405180910390fd5b60056001816001815401808255809150500390600052602060002090505060006005600160058054905061150891906129df565b8154811061151957611518612921565b5b9060005260206000209060040201905042816000018190555060018160020160006101000a81548160ff0219169083600181111561155a57611559611f25565b5b0217905550338160020160016101000a81548173ffffffffffffffffffffffffffffffffffffffff021916908373ffffffffffffffffffffffffffffffffffffffff160217905550818160030190816115b39190612d07565b5060005b845181101561174e5760008582815181106115d5576115d4612921565b5b6020026020010151905060008583815181106115f4576115f3612921565b5b602002602001015190506002600083815260200190815260200160002060040160009054906101000a900460ff16611661576040517f08c379a000000000000000000000000000000000000000000000000000000000815260040161165890612fc2565b60405180910390fd5b80600260008481526020019081526020016000206003015410156116ba576040517f08c379a00000000000000000000000000000000000000000000000000000000081526004016116b19061307a565b60405180910390fd5b806002600084815260200190815260200160002060030160008282546116e091906129df565b9250508190555083600101604051806040016040528084815260200183815250908060018154018082558091505060019003906000526020600020906002020160009091909190915060008201518160000155602082015181600101555050505080806001019150506115b7565b503373ffffffffffffffffffffffffffffffffffffffff16427fc4ee83de1e0159336d182515e213b3b9b4961450a17963e92d762b466fdc726684878760405161179a93929190612fe2565b60405180910390a350505050565b60008054906101000a900473ffffffffffffffffffffffffffffffffffffffff1673ffffffffffffffffffffffffffffffffffffffff163373ffffffffffffffffffffffffffffffffffffffff1614611836576040517f08c379a000000000000000000000000000000000000000000000000000000000815260040161182d90612b3b565b60405180910390fd5b600360008273ffffffffffffffffffffffffffffffffffffffff1673ffffffffffffffffffffffffffffffffffffffff16815260200190815260200160002060009054906101000a900460ff166118c2576040517f08c379a00000000000000000000000000000000000000000000000000000000081526004016118b9906130e6565b60405180910390fd5b6000600360008373ffffffffffffffffffffffffffffffffffffffff1673ffffffffffffffffffffffffffffffffffffffff16815260200190815260200160002060006101000a81548160ff0219169083151502179055507f193de8d500b5cb7b720089b258a39e9c1d0b840019a73ae7c51c3f9101732b0281600060405161194c929190612e75565b60405180910390a150565b60026020528060005260406000206000915090508060000154908060010180546119809061297f565b80601f01602080910402602001604051908101604052809291908181526020018280546119ac9061297f565b80156119f95780601f106119ce576101008083540402835291602001916119f9565b820191906000526020600020905b8154815290600101906020018083116119dc57829003601f168201915b505050505090806002018054611a0e9061297f565b80601f0160208091040260200160405190810160405280929190818152602001828054611a3a9061297f565b8015611a875780601f10611a5c57610100808354040283529160200191611a87565b820191906000526020600020905b815481529060010190602001808311611a6a57829003601f168201915b5050505050908060030154908060040160009054906101000a900460ff16905085565b611ab2611dad565b600260008381526020019081526020016000206040518060a001604052908160008201548152602001600182018054611aea9061297f565b80601f0160208091040260200160405190810160405280929190818152602001828054611b169061297f565b8015611b635780601f10611b3857610100808354040283529160200191611b63565b820191906000526020600020905b815481529060010190602001808311611b4657829003601f168201915b50505050508152602001600282018054611b7c9061297f565b80601f0160208091040260200160405190810160405280929190818152602001828054611ba89061297f565b8015611bf55780601f10611bca57610100808354040283529160200191611bf5565b820191906000526020600020905b815481529060010190602001808311611bd857829003601f168201915b50505050508152602001600382015481526020016004820160009054906101000a900460ff1615151515815250509050919050565b60606004805480602002602001604051908101604052809291908181526020018280548015611cae57602002820191906000526020600020905b8160009054906101000a900473ffffffffffffffffffffffffffffffffffffffff1673ffffffffffffffffffffffffffffffffffffffff1681526020019060010190808311611c64575b5050505050905090565b60058181548110611cc857600080fd5b90600052602060002090600402016000915090508060000154908060020160009054906101000a900460ff16908060020160019054906101000a900473ffffffffffffffffffffffffffffffffffffffff1690806003018054611d2a9061297f565b80601f0160208091040260200160405190810160405280929190818152602001828054611d569061297f565b8015611da35780601f10611d7857610100808354040283529160200191611da3565b820191906000526020600020905b815481529060010190602001808311611d8657829003601f168201915b5050505050905084565b6040518060a00160405280600081526020016060815260200160608152602001600081526020016000151581525090565b6000604051905090565b600080fd5b600080fd5b600073ffffffffffffffffffffffffffffffffffffffff82169050919050565b6000611e1d82611df2565b9050919050565b611e2d81611e12565b8114611e3857600080fd5b50565b600081359050611e4a81611e24565b92915050565b600060208284031215611e6657611e65611de8565b5b6000611e7484828501611e3b565b91505092915050565b60008115159050919050565b611e9281611e7d565b82525050565b6000602082019050611ead6000830184611e89565b92915050565b6000819050919050565b611ec681611eb3565b8114611ed157600080fd5b50565b600081359050611ee381611ebd565b92915050565b600060208284031215611eff57611efe611de8565b5b6000611f0d84828501611ed4565b91505092915050565b611f1f81611eb3565b82525050565b7f4e487b7100000000000000000000000000000000000000000000000000000000600052602160045260246000fd5b60028110611f6557611f64611f25565b5b50565b6000819050611f7682611f54565b919050565b6000611f8682611f68565b9050919050565b611f9681611f7b565b82525050565b611fa581611e12565b82525050565b600081519050919050565b600082825260208201905092915050565b60005b83811015611fe5578082015181840152602081019050611fca565b60008484015250505050565b6000601f19601f8301169050919050565b600061200d82611fab565b6120178185611fb6565b9350612027818560208601611fc7565b61203081611ff1565b840191505092915050565b600081519050919050565b600082825260208201905092915050565b6000819050602082019050919050565b61207081611eb3565b82525050565b60006120828383612067565b60208301905092915050565b6000602082019050919050565b60006120a68261203b565b6120b08185612046565b93506120bb83612057565b8060005b838110156120ec5781516120d38882612076565b97506120de8361208e565b9250506001810190506120bf565b5085935050505092915050565b600060c08201905061210e6000830189611f16565b61211b6020830188611f8d565b6121286040830187611f9c565b818103606083015261213a8186612002565b9050818103608083015261214e818561209b565b905081810360a0830152612162818461209b565b9050979650505050505050565b600081519050919050565b600082825260208201905092915050565b6000819050602082019050919050565b600082825260208201905092915050565b60006121b782611fab565b6121c1818561219b565b93506121d1818560208601611fc7565b6121da81611ff1565b840191505092915050565b6121ee81611e7d565b82525050565b600060a08301600083015161220c6000860182612067565b506020830151848203602086015261222482826121ac565b9150506040830151848203604086015261223e82826121ac565b91505060608301516122536060860182612067565b50608083015161226660808601826121e5565b508091505092915050565b600061227d83836121f4565b905092915050565b6000602082019050919050565b600061229d8261216f565b6122a7818561217a565b9350836020820285016122b98561218b565b8060005b858110156122f557848403895281516122d68582612271565b94506122e183612285565b925060208a019950506001810190506122bd565b50829750879550505050505092915050565b600060208201905081810360008301526123218184612292565b905092915050565b600081519050919050565b600082825260208201905092915050565b6000819050602082019050919050565b61235e81611e12565b82525050565b60006123708383612355565b60208301905092915050565b6000602082019050919050565b600061239482612329565b61239e8185612334565b93506123a983612345565b8060005b838110156123da5781516123c18882612364565b97506123cc8361237c565b9250506001810190506123ad565b5085935050505092915050565b600060208201905081810360008301526124018184612389565b905092915050565b600060408201905061241e6000830185611f16565b61242b6020830184611f16565b9392505050565b600080fd5b600080fd5b7f4e487b7100000000000000000000000000000000000000000000000000000000600052604160045260246000fd5b61247482611ff1565b810181811067ffffffffffffffff821117156124935761249261243c565b5b80604052505050565b60006124a6611dde565b90506124b2828261246b565b919050565b600067ffffffffffffffff8211156124d2576124d161243c565b5b6124db82611ff1565b9050602081019050919050565b82818337600083830152505050565b600061250a612505846124b7565b61249c565b90508281526020810184848401111561252657612525612437565b5b6125318482856124e8565b509392505050565b600082601f83011261254e5761254d612432565b5b813561255e8482602086016124f7565b91505092915050565b6000806040838503121561257e5761257d611de8565b5b600083013567ffffffffffffffff81111561259c5761259b611ded565b5b6125a885828601612539565b925050602083013567ffffffffffffffff8111156125c9576125c8611ded565b5b6125d585828601612539565b9150509250929050565b60006020820190506125f46000830184611f9c565b92915050565b600067ffffffffffffffff8211156126155761261461243c565b5b602082029050602081019050919050565b600080fd5b600061263e612639846125fa565b61249c565b9050808382526020820190506020840283018581111561266157612660612626565b5b835b8181101561268a57806126768882611ed4565b845260208401935050602081019050612663565b5050509392505050565b600082601f8301126126a9576126a8612432565b5b81356126b984826020860161262b565b91505092915050565b6000806000606084860312156126db576126da611de8565b5b600084013567ffffffffffffffff8111156126f9576126f8611ded565b5b61270586828701612694565b935050602084013567ffffffffffffffff81111561272657612725611ded565b5b61273286828701612694565b925050604084013567ffffffffffffffff81111561275357612752611ded565b5b61275f86828701612539565b9150509250925092565b600060a08201905061277e6000830188611f16565b81810360208301526127908187612002565b905081810360408301526127a48186612002565b90506127b36060830185611f16565b6127c06080830184611e89565b9695505050505050565b600060a0830160008301516127e26000860182612067565b50602083015184820360208601526127fa82826121ac565b9150506040830151848203604086015261281482826121ac565b91505060608301516128296060860182612067565b50608083015161283c60808601826121e5565b508091505092915050565b6000602082019050818103600083015261286181846127ca565b905092915050565b600060808201905061287e6000830187611f16565b61288b6020830186611f8d565b6128986040830185611f9c565b81810360608301526128aa8184612002565b905095945050505050565b7f4c6f6720696e646578206f7574206f6620626f756e6473000000000000000000600082015250565b60006128eb601783611fb6565b91506128f6826128b5565b602082019050919050565b6000602082019050818103600083015261291a816128de565b9050919050565b7f4e487b7100000000000000000000000000000000000000000000000000000000600052603260045260246000fd5b7f4e487b7100000000000000000000000000000000000000000000000000000000600052602260045260246000fd5b6000600282049050600182168061299757607f821691505b6020821081036129aa576129a9612950565b5b50919050565b7f4e487b7100000000000000000000000000000000000000000000000000000000600052601160045260246000fd5b60006129ea82611eb3565b91506129f583611eb3565b9250828203905081811115612a0d57612a0c6129b0565b5b92915050565b6000612a1e82611eb3565b91507fffffffffffffffffffffffffffffffffffffffffffffffffffffffffffffffff8203612a5057612a4f6129b0565b5b600182019050919050565b7f4e487b7100000000000000000000000000000000000000000000000000000000600052601260045260246000fd5b6000612a9582611eb3565b9150612aa083611eb3565b925082612ab057612aaf612a5b565b5b828206905092915050565b6000612ac682611eb3565b9150612ad183611eb3565b9250828201905080821115612ae957612ae86129b0565b5b92915050565b7f4e6f74206f776e65720000000000000000000000000000000000000000000000600082015250565b6000612b25600983611fb6565b9150612b3082612aef565b602082019050919050565b60006020820190508181036000830152612b5481612b18565b9050919050565b60008190508160005260206000209050919050565b60006020601f8301049050919050565b600082821b905092915050565b600060088302612bbd7fffffffffffffffffffffffffffffffffffffffffffffffffffffffffffffffff82612b80565b612bc78683612b80565b95508019841693508086168417925050509392505050565b6000819050919050565b6000612c04612bff612bfa84611eb3565b612bdf565b611eb3565b9050919050565b6000819050919050565b612c1e83612be9565b612c32612c2a82612c0b565b848454612b8d565b825550505050565b600090565b612c47612c3a565b612c52818484612c15565b505050565b5b81811015612c7657612c6b600082612c3f565b600181019050612c58565b5050565b601f821115612cbb57612c8c81612b5b565b612c9584612b70565b81016020851015612ca4578190505b612cb8612cb085612b70565b830182612c57565b50505b505050565b600082821c905092915050565b6000612cde60001984600802612cc0565b1980831691505092915050565b6000612cf78383612ccd565b9150826002028217905092915050565b612d1082611fab565b67ffffffffffffffff811115612d2957612d2861243c565b5b612d33825461297f565b612d3e828285612c7a565b600060209050601f831160018114612d715760008415612d5f578287015190505b612d698582612ceb565b865550612dd1565b601f198416612d7f86612b5b565b60005b82811015612da757848901518255600182019150602085019450602081019050612d82565b86831015612dc45784890151612dc0601f891682612ccd565b8355505b6001600288020188555050505b505050505050565b6000604082019050612dee6000830185611f16565b8181036020830152612e008184612002565b90509392505050565b7f416c7265616479206f70657261746f7200000000000000000000000000000000600082015250565b6000612e3f601083611fb6565b9150612e4a82612e09565b602082019050919050565b60006020820190508181036000830152612e6e81612e32565b9050919050565b6000604082019050612e8a6000830185611f9c565b612e976020830184611e89565b9392505050565b7f4e6f74206f70657261746f720000000000000000000000000000000000000000600082015250565b6000612ed4600c83611fb6565b9150612edf82612e9e565b602082019050919050565b60006020820190508181036000830152612f0381612ec7565b9050919050565b7f496e707574206172726179206c656e677468206d69736d617463680000000000600082015250565b6000612f40601b83611fb6565b9150612f4b82612f0a565b602082019050919050565b60006020820190508181036000830152612f6f81612f33565b9050919050565b7f4974656d206e6f74206163746976650000000000000000000000000000000000600082015250565b6000612fac600f83611fb6565b9150612fb782612f76565b602082019050919050565b60006020820190508181036000830152612fdb81612f9f565b9050919050565b60006060820190508181036000830152612ffc8186612002565b90508181036020830152613010818561209b565b90508181036040830152613024818461209b565b9050949350505050565b7f496e73756666696369656e742073746f636b0000000000000000000000000000600082015250565b6000613064601283611fb6565b915061306f8261302e565b602082019050919050565b6000602082019050818103600083015261309381613057565b9050919050565b7f4e6f7420616e206f70657261746f720000000000000000000000000000000000600082015250565b60006130d0600f83611fb6565b91506130db8261309a565b602082019050919050565b600060208201905081810360008301526130ff816130c3565b905091905056fea2646970667358221220397abdd659718b243d6ec24feff6e19196abd3be4bd2b8c4d4da1c3062f8fa9964736f6c634300081c0033",
  "linkReferences": {},
  "deployedLinkReferences": {}
}