{
  "_format": "hh-sol-artifact-1",
  "contractName": "Warehouse",
  "sourceName": "contracts/Warehouse-Management.sol",
  "abi": [
    {
      "inputs": [],
      "stateMutability": "nonpayable",
      "type": "constructor"
    },
    {
      "anonymous": false,
      "inputs": [
        {
          "indexed": false,
          "internalType": "uint256",
          "name": "itemId",
          "type": "uint256"
        },
        {
          "indexed": false,
          "internalType": "string",
          "name": "name",
          "type": "string"
        }
      ],
      "name": "ItemAdded",
      "type": "event"
    },
    {
      "anonymous": false,
      "inputs": [
        {
          "indexed": false,
          "internalType": "address",
          "name": "operator",
          "type": "address"
        },
        {
          "indexed": false,
          "internalType": "bool",
          "name": "status",
          "type": "bool"
        }
      ],
      "name": "OperatorChanged",
      "type": "event"
    },
    {
      "anonymous": false,
      "inputs": [
        {
          "indexed": true,
          "internalType": "uint256",
          "name": "timestamp",
          "type": "uint256"
        },
        {
          "indexed": true,
          "internalType": "address",
          "name": "operator",
          "type": "address"
        },
        {
          "indexed": false,
          "internalType": "string",
          "name": "note",
          "type": "string"
        },
        {
          "indexed": false,
          "internalType": "uint256[]",
          "name": "itemIds",
          "type": "uint256[]"
        },
        {
          "indexed": false,
          "internalType": "uint256[]",
          "name": "amounts",
          "type": "uint256[]"
        }
      ],
      "name": "StockCheckedIn",
      "type": "event"
    },
    {
      "anonymous": false,
      "inputs": [
        {
          "indexed": true,
          "internalType": "uint256",
          "name": "timestamp",
          "type": "uint256"
        },
        {
          "indexed": true,
          "internalType": "address",
          "name": "operator",
          "type": "address"
        },
        {
          "indexed": false,
          "internalType": "string",
          "name": "note",
          "type": "string"
        },
        {
          "indexed": false,
          "internalType": "uint256[]",
          "name": "itemIds",
          "type": "uint256[]"
        },
        {
          "indexed": false,
          "internalType": "uint256[]",
          "name": "amounts",
          "type": "uint256[]"
        }
      ],
      "name": "StockCheckedOut",
      "type": "event"
    },
    {
      "inputs": [
        {
          "internalType": "string",
          "name": "name",
          "type": "string"
        },
        {
          "internalType": "string",
          "name": "category",
          "type": "string"
        }
      ],
      "name": "addItem",
      "outputs": [],
      "stateMutability": "nonpayable",
      "type": "function"
    },
    {
      "inputs": [
        {
          "internalType": "address",
          "name": "_operator",
          "type": "address"
        }
      ],
      "name": "addOperator",
      "outputs": [],
      "stateMutability": "nonpayable",
      "type": "function"
    },
    {
      "inputs": [],
      "name": "getActiveOperators",
      "outputs": [
        {
          "internalType": "address[]",
          "name": "",
          "type": "address[]"
        }
      ],
      "stateMutability": "view",
      "type": "function"
    },
    {
      "inputs": [],
      "name": "getAllItems",
      "outputs": [
        {
          "components": [
            {
              "internalType": "uint256",
              "name": "id",
              "type": "uint256"
            },
            {
              "internalType": "string",
              "name": "name",
              "type": "string"
            },
            {
              "internalType": "string",
              "name": "category",
              "type": "string"
            },
            {
              "internalType": "uint256",
              "name": "quantity",
              "type": "uint256"
            },
            {
              "internalType": "bool",
              "name": "isActive",
              "type": "bool"
            }
          ],
          "internalType": "struct Warehouse.Item[]",
          "name": "",
          "type": "tuple[]"
        }
      ],
      "stateMutability": "view",
      "type": "function"
    },
    {
      "inputs": [],
      "name": "getAllOperators",
      "outputs": [
        {
          "internalType": "address[]",
          "name": "",
          "type": "address[]"
        }
      ],
      "stateMutability": "view",
      "type": "function"
    },
    {
      "inputs": [
        {
          "internalType": "uint256",
          "name": "itemId",
          "type": "uint256"
        }
      ],
      "name": "getItemById",
      "outputs": [
        {
          "components": [
            {
              "internalType": "uint256",
              "name": "id",
              "type": "uint256"
            },
            {
              "internalType": "string",
              "name": "name",
              "type": "string"
            },
            {
              "internalType": "string",
              "name": "category",
              "type": "string"
            },
            {
              "internalType": "uint256",
              "name": "quantity",
              "type": "uint256"
            },
            {
              "internalType": "bool",
              "name": "isActive",
              "type": "bool"
            }
          ],
          "internalType": "struct Warehouse.Item",
          "name": "",
          "type": "tuple"
        }
      ],
      "stateMutability": "view",
      "type": "function"
    },
    {
      "inputs": [
        {
          "internalType": "uint256",
          "name": "index",
          "type": "uint256"
        }
      ],
      "name": "getLog",
      "outputs": [
        {
          "internalType": "uint256",
          "name": "timestamp",
          "type": "uint256"
        },
        {
          "internalType": "enum Warehouse.Action",
          "name": "action",
          "type": "uint8"
        },
        {
          "internalType": "address",
          "name": "operator",
          "type": "address"
        },
        {
          "internalType": "string",
          "name": "note",
          "type": "string"
        },
        {
          "internalType": "uint256[]",
          "name": "itemIds",
          "type": "uint256[]"
        },
        {
          "internalType": "uint256[]",
          "name": "amounts",
          "type": "uint256[]"
        }
      ],
      "stateMutability": "view",
      "type": "function"
    },
    {
      "inputs": [],
      "name": "getTodayStockInOut",
      "outputs": [
        {
          "internalType": "uint256",
          "name": "totalInTransactions",
          "type": "uint256"
        },
        {
          "internalType": "uint256",
          "name": "totalOutTransactions",
          "type": "uint256"
        }
      ],
      "stateMutability": "view",
      "type": "function"
    },
    {
      "inputs": [],
      "name": "getTotalLogs",
      "outputs": [
        {
          "internalType": "uint256",
          "name": "",
          "type": "uint256"
        }
      ],
      "stateMutability": "view",
      "type": "function"
    },
    {
      "inputs": [
        {
          "internalType": "uint256",
          "name": "",
          "type": "uint256"
        }
      ],
      "name": "items",
      "outputs": [
        {
          "internalType": "uint256",
          "name": "id",
          "type": "uint256"
        },
        {
          "internalType": "string",
          "name": "name",
          "type": "string"
        },
        {
          "internalType": "string",
          "name": "category",
          "type": "string"
        },
        {
          "internalType": "uint256",
          "name": "quantity",
          "type": "uint256"
        },
        {
          "internalType": "bool",
          "name": "isActive",
          "type": "bool"
        }
      ],
      "stateMutability": "view",
      "type": "function"
    },
    {
      "inputs": [
        {
          "internalType": "uint256",
          "name": "",
          "type": "uint256"
        }
      ],
      "name": "logs",
      "outputs": [
        {
          "internalType": "uint256",
          "name": "timestamp",
          "type": "uint256"
        },
        {
          "internalType": "enum Warehouse.Action",
          "name": "action",
          "type": "uint8"
        },
        {
          "internalType": "address",
          "name": "operator",
          "type": "address"
        },
        {
          "internalType": "string",
          "name": "note",
          "type": "string"
        }
      ],
      "stateMutability": "view",
      "type": "function"
    },
    {
      "inputs": [
        {
          "internalType": "address",
          "name": "",
          "type": "address"
        }
      ],
      "name": "operators",
      "outputs": [
        {
          "internalType": "bool",
          "name": "",
          "type": "bool"
        }
      ],
      "stateMutability": "view",
      "type": "function"
    },
    {
      "inputs": [],
      "name": "owner",
      "outputs": [
        {
          "internalType": "address",
          "name": "",
          "type": "address"
        }
      ],
      "stateMutability": "view",
      "type": "function"
    },
    {
      "inputs": [
        {
          "internalType": "address",
          "name": "_operator",
          "type": "address"
        }
      ],
      "name": "removeOperator",
      "outputs": [],
      "stateMutability": "nonpayable",
      "type": "function"
    },
    {
      "inputs": [
        {
          "internalType": "uint256[]",
          "name": "itemIds",
          "type": "uint256[]"
        },
        {
          "internalType": "uint256[]",
          "name": "amounts",
          "type": "uint256[]"
        },
        {
          "internalType": "string",
          "name": "note",
          "type": "string"
        }
      ],
      "name": "stockIn",
      "outputs": [],
      "stateMutability": "nonpayable",
      "type": "function"
    },
    {
      "inputs": [
        {
          "internalType": "uint256[]",
          "name": "itemIds",
          "type": "uint256[]"
        },
        {
          "internalType": "uint256[]",
          "name": "amounts",
          "type": "uint256[]"
        },
        {
          "internalType": "string",
          "name": "note",
          "type": "string"
        }
      ],
      "name": "stockOut",
      "outputs": [],
      "stateMutability": "nonpayable",
      "type": "function"
    }
  ],
  "bytecode": "0x608060405260018055348015601357600080fd5b50336000806101000a81548173ffffffffffffffffffffffffffffffffffffffff021916908373ffffffffffffffffffffffffffffffffffffffff1602179055506130f4806100636000396000f3fe608060405234801561001057600080fd5b50600436106101005760003560e01c8063a6c2ef0611610097578063bfb231d211610066578063bfb231d21461028d578063cd2f0710146102c1578063d911c632146102f1578063e79899bd1461030f57610100565b8063a6c2ef061461021b578063a97c655114610237578063ac8a584a14610253578063bd628d261461026f57610100565b80636cc54af2116100d35780636cc54af2146101a65780637ed8a719146101c55780638da5cb5b146101e15780639870d7fe146101ff57610100565b806313e7c9d8146101055780633206b2c6146101355780634ba1d6aa1461016a57806364bdc67e14610188575b600080fd5b61011f600480360381019061011a9190611ded565b610342565b60405161012c9190611e35565b60405180910390f35b61014f600480360381019061014a9190611e86565b610362565b60405161016196959493929190612096565b60405180910390f35b610172610613565b60405161017f91906122a4565b60405180910390f35b61019061083b565b60405161019d9190612384565b60405180910390f35b6101ae610a99565b6040516101bc9291906123a6565b60405180910390f35b6101df60048036038101906101da9190612504565b610be8565b005b6101e9610d72565b6040516101f6919061257c565b60405180910390f35b61021960048036038101906102149190611ded565b610d96565b005b6102356004803603810190610230919061265f565b611049565b005b610251600480360381019061024c919061265f565b611394565b005b61026d60048036038101906102689190611ded565b611738565b005b6102776118e7565b6040516102849190612706565b60405180910390f35b6102a760048036038101906102a29190611e86565b6118f4565b6040516102b8959493929190612721565b60405180910390f35b6102db60048036038101906102d69190611e86565b611a47565b6040516102e891906127ff565b60405180910390f35b6102f9611bc7565b6040516103069190612384565b60405180910390f35b61032960048036038101906103249190611e86565b611c55565b6040516103399493929190612821565b60405180910390f35b60036020528060005260406000206000915054906101000a900460ff1681565b60008060006060806060600580549050871080610380575060008710155b6103bf576040517f08c379a00000000000000000000000000000000000000000000000000000000081526004016103b6906128b9565b60405180910390fd5b6000600588815481106103d5576103d46128d9565b5b906000526020600020906004020190506000816001018054905090508067ffffffffffffffff81111561040b5761040a6123d9565b5b6040519080825280602002602001820160405280156104395781602001602082028036833780820191505090505b5093508067ffffffffffffffff811115610456576104556123d9565b5b6040519080825280602002602001820160405280156104845781602001602082028036833780820191505090505b50925060005b8181101561052d578260010181815481106104a8576104a76128d9565b5b9060005260206000209060020201600001548582815181106104cd576104cc6128d9565b5b6020026020010181815250508260010181815481106104ef576104ee6128d9565b5b906000526020600020906002020160010154848281518110610514576105136128d9565b5b602002602001018181525050808060010191505061048a565b5081600001548260020160009054906101000a900460ff168360020160019054906101000a900473ffffffffffffffffffffffffffffffffffffffff1684600301878782805461057c90612937565b80601f01602080910402602001604051908101604052809291908181526020018280546105a890612937565b80156105f55780601f106105ca576101008083540402835291602001916105f5565b820191906000526020600020905b8154815290600101906020018083116105d857829003601f168201915b50505050509250975097509750975097509750505091939550919395565b60606000600180546106259190612997565b67ffffffffffffffff81111561063e5761063d6123d9565b5b60405190808252806020026020018201604052801561067757816020015b610664611d4a565b81526020019060019003908161065c5790505b5090506000600190505b60015481101561083357600260008281526020019081526020016000206040518060a0016040529081600082015481526020016001820180546106c390612937565b80601f01602080910402602001604051908101604052809291908181526020018280546106ef90612937565b801561073c5780601f106107115761010080835404028352916020019161073c565b820191906000526020600020905b81548152906001019060200180831161071f57829003601f168201915b5050505050815260200160028201805461075590612937565b80601f016020809104026020016040519081016040528092919081815260200182805461078190612937565b80156107ce5780601f106107a3576101008083540402835291602001916107ce565b820191906000526020600020905b8154815290600101906020018083116107b157829003601f168201915b50505050508152602001600382015481526020016004820160009054906101000a900460ff1615151515815250508260018361080a9190612997565b8151811061081b5761081a6128d9565b5b60200260200101819052508080600101915050610681565b508091505090565b60606000805b6004805490508110156108fa576003600060048381548110610866576108656128d9565b5b9060005260206000200160009054906101000a900473ffffffffffffffffffffffffffffffffffffffff1673ffffffffffffffffffffffffffffffffffffffff1673ffffffffffffffffffffffffffffffffffffffff16815260200190815260200160002060009054906101000a900460ff16156108ed5781806108e9906129cb565b9250505b8080600101915050610841565b5060008167ffffffffffffffff811115610917576109166123d9565b5b6040519080825280602002602001820160405280156109455781602001602082028036833780820191505090505b5090506000805b600480549050811015610a8f576003600060048381548110610971576109706128d9565b5b9060005260206000200160009054906101000a900473ffffffffffffffffffffffffffffffffffffffff1673ffffffffffffffffffffffffffffffffffffffff1673ffffffffffffffffffffffffffffffffffffffff16815260200190815260200160002060009054906101000a900460ff1615610a8257600481815481106109fd576109fc6128d9565b5b9060005260206000200160009054906101000a900473ffffffffffffffffffffffffffffffffffffffff16838380610a34906129cb565b945081518110610a4757610a466128d9565b5b602002602001019073ffffffffffffffffffffffffffffffffffffffff16908173ffffffffffffffffffffffffffffffffffffffff16815250505b808060010191505061094c565b5081935050505090565b60008060006201518042610aad9190612a42565b42610ab89190612997565b905060005b600580549050811015610be2578160058281548110610adf57610ade6128d9565b5b90600052602060002090600402016000015410610bd55760006001811115610b0a57610b09611ec2565b5b60058281548110610b1e57610b1d6128d9565b5b906000526020600020906004020160020160009054906101000a900460ff166001811115610b4f57610b4e611ec2565b5b03610b67578380610b5f906129cb565b945050610bd4565b600180811115610b7a57610b79611ec2565b5b60058281548110610b8e57610b8d6128d9565b5b906000526020600020906004020160020160009054906101000a900460ff166001811115610bbf57610bbe611ec2565b5b03610bd3578280610bcf906129cb565b9350505b5b5b8080600101915050610abd565b50509091565b60008054906101000a900473ffffffffffffffffffffffffffffffffffffffff1673ffffffffffffffffffffffffffffffffffffffff163373ffffffffffffffffffffffffffffffffffffffff1614610c76576040517f08c379a0000000000000000000000000000000000000000000000000000000008152600401610c6d90612abf565b60405180910390fd5b6040518060a0016040528060015481526020018381526020018281526020016000815260200160011515815250600260006001548152602001908152602001600020600082015181600001556020820151816001019081610cd79190612c8b565b506040820151816002019081610ced9190612c8b565b506060820151816003015560808201518160040160006101000a81548160ff0219169083151502179055509050507f78d68ba0e8c23b92e7c700d99efed2719520cbd4af845b2c03ae251f9cdf3d5260015483604051610d4e929190612d5d565b60405180910390a160016000815480929190610d69906129cb565b91905055505050565b60008054906101000a900473ffffffffffffffffffffffffffffffffffffffff1681565b60008054906101000a900473ffffffffffffffffffffffffffffffffffffffff1673ffffffffffffffffffffffffffffffffffffffff163373ffffffffffffffffffffffffffffffffffffffff1614610e24576040517f08c379a0000000000000000000000000000000000000000000000000000000008152600401610e1b90612abf565b60405180910390fd5b600360008273ffffffffffffffffffffffffffffffffffffffff1673ffffffffffffffffffffffffffffffffffffffff16815260200190815260200160002060009054906101000a900460ff1615610eb1576040517f08c379a0000000000000000000000000000000000000000000000000000000008152600401610ea890612dd9565b60405180910390fd5b6001600360008373ffffffffffffffffffffffffffffffffffffffff1673ffffffffffffffffffffffffffffffffffffffff16815260200190815260200160002060006101000a81548160ff0219169083151502179055506000805b600480549050811015610fa1578273ffffffffffffffffffffffffffffffffffffffff1660048281548110610f4557610f446128d9565b5b9060005260206000200160009054906101000a900473ffffffffffffffffffffffffffffffffffffffff1673ffffffffffffffffffffffffffffffffffffffff1603610f945760019150610fa1565b8080600101915050610f0d565b508061100b576004829080600181540180825580915050600190039060005260206000200160009091909190916101000a81548173ffffffffffffffffffffffffffffffffffffffff021916908373ffffffffffffffffffffffffffffffffffffffff1602179055505b7f193de8d500b5cb7b720089b258a39e9c1d0b840019a73ae7c51c3f9101732b0282600160405161103d929190612df9565b60405180910390a15050565b600360003373ffffffffffffffffffffffffffffffffffffffff1673ffffffffffffffffffffffffffffffffffffffff16815260200190815260200160002060009054906101000a900460ff166110d5576040517f08c379a00000000000000000000000000000000000000000000000000000000081526004016110cc90612e6e565b60405180910390fd5b8151835114611119576040517f08c379a000000000000000000000000000000000000000000000000000000000815260040161111090612eda565b60405180910390fd5b60056001816001815401808255809150500390600052602060002090505060006005600160058054905061114d9190612997565b8154811061115e5761115d6128d9565b5b9060005260206000209060040201905042816000018190555060008160020160006101000a81548160ff0219169083600181111561119f5761119e611ec2565b5b0217905550338160020160016101000a81548173ffffffffffffffffffffffffffffffffffffffff021916908373ffffffffffffffffffffffffffffffffffffffff160217905550818160030190816111f89190612c8b565b5060005b845181101561133a57600085828151811061121a576112196128d9565b5b602002602001015190506000858381518110611239576112386128d9565b5b602002602001015190506002600083815260200190815260200160002060040160009054906101000a900460ff166112a6576040517f08c379a000000000000000000000000000000000000000000000000000000000815260040161129d90612f46565b60405180910390fd5b806002600084815260200190815260200160002060030160008282546112cc9190612f66565b9250508190555083600101604051806040016040528084815260200183815250908060018154018082558091505060019003906000526020600020906002020160009091909190915060008201518160000155602082015181600101555050505080806001019150506111fc565b503373ffffffffffffffffffffffffffffffffffffffff16427fd6e6f374ba54c0da4686fb95bab98a1747055413ccedd0c19883c92bfe2a21a684878760405161138693929190612f9a565b60405180910390a350505050565b600360003373ffffffffffffffffffffffffffffffffffffffff1673ffffffffffffffffffffffffffffffffffffffff16815260200190815260200160002060009054906101000a900460ff16611420576040517f08c379a000000000000000000000000000000000000000000000000000000000815260040161141790612e6e565b60405180910390fd5b8151835114611464576040517f08c379a000000000000000000000000000000000000000000000000000000000815260040161145b90612eda565b60405180910390fd5b6005600181600181540180825580915050039060005260206000209050506000600560016005805490506114989190612997565b815481106114a9576114a86128d9565b5b9060005260206000209060040201905042816000018190555060018160020160006101000a81548160ff021916908360018111156114ea576114e9611ec2565b5b0217905550338160020160016101000a81548173ffffffffffffffffffffffffffffffffffffffff021916908373ffffffffffffffffffffffffffffffffffffffff160217905550818160030190816115439190612c8b565b5060005b84518110156116de576000858281518110611565576115646128d9565b5b602002602001015190506000858381518110611584576115836128d9565b5b602002602001015190506002600083815260200190815260200160002060040160009054906101000a900460ff166115f1576040517f08c379a00000000000000000000000000000000000000000000000000000000081526004016115e890612f46565b60405180910390fd5b806002600084815260200190815260200160002060030154101561164a576040517f08c379a000000000000000000000000000000000000000000000000000000000815260040161164190613032565b60405180910390fd5b806002600084815260200190815260200160002060030160008282546116709190612997565b925050819055508360010160405180604001604052808481526020018381525090806001815401808255809150506001900390600052602060002090600202016000909190919091506000820151816000015560208201518160010155505050508080600101915050611547565b503373ffffffffffffffffffffffffffffffffffffffff16427fc4ee83de1e0159336d182515e213b3b9b4961450a17963e92d762b466fdc726684878760405161172a93929190612f9a565b60405180910390a350505050565b60008054906101000a900473ffffffffffffffffffffffffffffffffffffffff1673ffffffffffffffffffffffffffffffffffffffff163373ffffffffffffffffffffffffffffffffffffffff16146117c6576040517f08c379a00000000000000000000000000000000000000000000000000000000081526004016117bd90612abf565b60405180910390fd5b600360008273ffffffffffffffffffffffffffffffffffffffff1673ffffffffffffffffffffffffffffffffffffffff16815260200190815260200160002060009054906101000a900460ff16611852576040517f08c379a00000000000000000000000000000000000000000000000000000000081526004016118499061309e565b60405180910390fd5b6000600360008373ffffffffffffffffffffffffffffffffffffffff1673ffffffffffffffffffffffffffffffffffffffff16815260200190815260200160002060006101000a81548160ff0219169083151502179055507f193de8d500b5cb7b720089b258a39e9c1d0b840019a73ae7c51c3f9101732b028160006040516118dc929190612df9565b60405180910390a150565b6000600580549050905090565b600260205280600052604060002060009150905080600001549080600101805461191d90612937565b80601f016020809104026020016040519081016040528092919081815260200182805461194990612937565b80156119965780601f1061196b57610100808354040283529160200191611996565b820191906000526020600020905b81548152906001019060200180831161197957829003601f168201915b5050505050908060020180546119ab90612937565b80601f01602080910402602001604051908101604052809291908181526020018280546119d790612937565b8015611a245780601f106119f957610100808354040283529160200191611a24565b820191906000526020600020905b815481529060010190602001808311611a0757829003601f168201915b5050505050908060030154908060040160009054906101000a900460ff16905085565b611a4f611d4a565b600260008381526020019081526020016000206040518060a001604052908160008201548152602001600182018054611a8790612937565b80601f0160208091040260200160405190810160405280929190818152602001828054611ab390612937565b8015611b005780601f10611ad557610100808354040283529160200191611b00565b820191906000526020600020905b815481529060010190602001808311611ae357829003601f168201915b50505050508152602001600282018054611b1990612937565b80601f0160208091040260200160405190810160405280929190818152602001828054611b4590612937565b8015611b925780601f10611b6757610100808354040283529160200191611b92565b820191906000526020600020905b815481529060010190602001808311611b7557829003601f168201915b50505050508152602001600382015481526020016004820160009054906101000a900460ff1615151515815250509050919050565b60606004805480602002602001604051908101604052809291908181526020018280548015611c4b57602002820191906000526020600020905b8160009054906101000a900473ffffffffffffffffffffffffffffffffffffffff1673ffffffffffffffffffffffffffffffffffffffff1681526020019060010190808311611c01575b5050505050905090565b60058181548110611c6557600080fd5b90600052602060002090600402016000915090508060000154908060020160009054906101000a900460ff16908060020160019054906101000a900473ffffffffffffffffffffffffffffffffffffffff1690806003018054611cc790612937565b80601f0160208091040260200160405190810160405280929190818152602001828054611cf390612937565b8015611d405780601f10611d1557610100808354040283529160200191611d40565b820191906000526020600020905b815481529060010190602001808311611d2357829003601f168201915b5050505050905084565b6040518060a00160405280600081526020016060815260200160608152602001600081526020016000151581525090565b6000604051905090565b600080fd5b600080fd5b600073ffffffffffffffffffffffffffffffffffffffff82169050919050565b6000611dba82611d8f565b9050919050565b611dca81611daf565b8114611dd557600080fd5b50565b600081359050611de781611dc1565b92915050565b600060208284031215611e0357611e02611d85565b5b6000611e1184828501611dd8565b91505092915050565b60008115159050919050565b611e2f81611e1a565b82525050565b6000602082019050611e4a6000830184611e26565b92915050565b6000819050919050565b611e6381611e50565b8114611e6e57600080fd5b50565b600081359050611e8081611e5a565b92915050565b600060208284031215611e9c57611e9b611d85565b5b6000611eaa84828501611e71565b91505092915050565b611ebc81611e50565b82525050565b7f4e487b7100000000000000000000000000000000000000000000000000000000600052602160045260246000fd5b60028110611f0257611f01611ec2565b5b50565b6000819050611f1382611ef1565b919050565b6000611f2382611f05565b9050919050565b611f3381611f18565b82525050565b611f4281611daf565b82525050565b600081519050919050565b600082825260208201905092915050565b60005b83811015611f82578082015181840152602081019050611f67565b60008484015250505050565b6000601f19601f8301169050919050565b6000611faa82611f48565b611fb48185611f53565b9350611fc4818560208601611f64565b611fcd81611f8e565b840191505092915050565b600081519050919050565b600082825260208201905092915050565b6000819050602082019050919050565b61200d81611e50565b82525050565b600061201f8383612004565b60208301905092915050565b6000602082019050919050565b600061204382611fd8565b61204d8185611fe3565b935061205883611ff4565b8060005b838110156120895781516120708882612013565b975061207b8361202b565b92505060018101905061205c565b5085935050505092915050565b600060c0820190506120ab6000830189611eb3565b6120b86020830188611f2a565b6120c56040830187611f39565b81810360608301526120d78186611f9f565b905081810360808301526120eb8185612038565b905081810360a08301526120ff8184612038565b9050979650505050505050565b600081519050919050565b600082825260208201905092915050565b6000819050602082019050919050565b600082825260208201905092915050565b600061215482611f48565b61215e8185612138565b935061216e818560208601611f64565b61217781611f8e565b840191505092915050565b61218b81611e1a565b82525050565b600060a0830160008301516121a96000860182612004565b50602083015184820360208601526121c18282612149565b915050604083015184820360408601526121db8282612149565b91505060608301516121f06060860182612004565b5060808301516122036080860182612182565b508091505092915050565b600061221a8383612191565b905092915050565b6000602082019050919050565b600061223a8261210c565b6122448185612117565b93508360208202850161225685612128565b8060005b858110156122925784840389528151612273858261220e565b945061227e83612222565b925060208a0199505060018101905061225a565b50829750879550505050505092915050565b600060208201905081810360008301526122be818461222f565b905092915050565b600081519050919050565b600082825260208201905092915050565b6000819050602082019050919050565b6122fb81611daf565b82525050565b600061230d83836122f2565b60208301905092915050565b6000602082019050919050565b6000612331826122c6565b61233b81856122d1565b9350612346836122e2565b8060005b8381101561237757815161235e8882612301565b975061236983612319565b92505060018101905061234a565b5085935050505092915050565b6000602082019050818103600083015261239e8184612326565b905092915050565b60006040820190506123bb6000830185611eb3565b6123c86020830184611eb3565b9392505050565b600080fd5b600080fd5b7f4e487b7100000000000000000000000000000000000000000000000000000000600052604160045260246000fd5b61241182611f8e565b810181811067ffffffffffffffff821117156124305761242f6123d9565b5b80604052505050565b6000612443611d7b565b905061244f8282612408565b919050565b600067ffffffffffffffff82111561246f5761246e6123d9565b5b61247882611f8e565b9050602081019050919050565b82818337600083830152505050565b60006124a76124a284612454565b612439565b9050828152602081018484840111156124c3576124c26123d4565b5b6124ce848285612485565b509392505050565b600082601f8301126124eb576124ea6123cf565b5b81356124fb848260208601612494565b91505092915050565b6000806040838503121561251b5761251a611d85565b5b600083013567ffffffffffffffff81111561253957612538611d8a565b5b612545858286016124d6565b925050602083013567ffffffffffffffff81111561256657612565611d8a565b5b612572858286016124d6565b9150509250929050565b60006020820190506125916000830184611f39565b92915050565b600067ffffffffffffffff8211156125b2576125b16123d9565b5b602082029050602081019050919050565b600080fd5b60006125db6125d684612597565b612439565b905080838252602082019050602084028301858111156125fe576125fd6125c3565b5b835b8181101561262757806126138882611e71565b845260208401935050602081019050612600565b5050509392505050565b600082601f830112612646576126456123cf565b5b81356126568482602086016125c8565b91505092915050565b60008060006060848603121561267857612677611d85565b5b600084013567ffffffffffffffff81111561269657612695611d8a565b5b6126a286828701612631565b935050602084013567ffffffffffffffff8111156126c3576126c2611d8a565b5b6126cf86828701612631565b925050604084013567ffffffffffffffff8111156126f0576126ef611d8a565b5b6126fc868287016124d6565b9150509250925092565b600060208201905061271b6000830184611eb3565b92915050565b600060a0820190506127366000830188611eb3565b81810360208301526127488187611f9f565b9050818103604083015261275c8186611f9f565b905061276b6060830185611eb3565b6127786080830184611e26565b9695505050505050565b600060a08301600083015161279a6000860182612004565b50602083015184820360208601526127b28282612149565b915050604083015184820360408601526127cc8282612149565b91505060608301516127e16060860182612004565b5060808301516127f46080860182612182565b508091505092915050565b600060208201905081810360008301526128198184612782565b905092915050565b60006080820190506128366000830187611eb3565b6128436020830186611f2a565b6128506040830185611f39565b81810360608301526128628184611f9f565b905095945050505050565b7f4c6f6720696e646578206f7574206f6620626f756e6473000000000000000000600082015250565b60006128a3601783611f53565b91506128ae8261286d565b602082019050919050565b600060208201905081810360008301526128d281612896565b9050919050565b7f4e487b7100000000000000000000000000000000000000000000000000000000600052603260045260246000fd5b7f4e487b7100000000000000000000000000000000000000000000000000000000600052602260045260246000fd5b6000600282049050600182168061294f57607f821691505b60208210810361296257612961612908565b5b50919050565b7f4e487b7100000000000000000000000000000000000000000000000000000000600052601160045260246000fd5b60006129a282611e50565b91506129ad83611e50565b92508282039050818111156129c5576129c4612968565b5b92915050565b60006129d682611e50565b91507fffffffffffffffffffffffffffffffffffffffffffffffffffffffffffffffff8203612a0857612a07612968565b5b600182019050919050565b7f4e487b7100000000000000000000000000000000000000000000000000000000600052601260045260246000fd5b6000612a4d82611e50565b9150612a5883611e50565b925082612a6857612a67612a13565b5b828206905092915050565b7f4e6f74206f776e65720000000000000000000000000000000000000000000000600082015250565b6000612aa9600983611f53565b9150612ab482612a73565b602082019050919050565b60006020820190508181036000830152612ad881612a9c565b9050919050565b60008190508160005260206000209050919050565b60006020601f8301049050919050565b600082821b905092915050565b600060088302612b417fffffffffffffffffffffffffffffffffffffffffffffffffffffffffffffffff82612b04565b612b4b8683612b04565b95508019841693508086168417925050509392505050565b6000819050919050565b6000612b88612b83612b7e84611e50565b612b63565b611e50565b9050919050565b6000819050919050565b612ba283612b6d565b612bb6612bae82612b8f565b848454612b11565b825550505050565b600090565b612bcb612bbe565b612bd6818484612b99565b505050565b5b81811015612bfa57612bef600082612bc3565b600181019050612bdc565b5050565b601f821115612c3f57612c1081612adf565b612c1984612af4565b81016020851015612c28578190505b612c3c612c3485612af4565b830182612bdb565b50505b505050565b600082821c905092915050565b6000612c6260001984600802612c44565b1980831691505092915050565b6000612c7b8383612c51565b9150826002028217905092915050565b612c9482611f48565b67ffffffffffffffff811115612cad57612cac6123d9565b5b612cb78254612937565b612cc2828285612bfe565b600060209050601f831160018114612cf55760008415612ce3578287015190505b612ced8582612c6f565b865550612d55565b601f198416612d0386612adf565b60005b82811015612d2b57848901518255600182019150602085019450602081019050612d06565b86831015612d485784890151612d44601f891682612c51565b8355505b6001600288020188555050505b505050505050565b6000604082019050612d726000830185611eb3565b8181036020830152612d848184611f9f565b90509392505050565b7f416c7265616479206f70657261746f7200000000000000000000000000000000600082015250565b6000612dc3601083611f53565b9150612dce82612d8d565b602082019050919050565b60006020820190508181036000830152612df281612db6565b9050919050565b6000604082019050612e0e6000830185611f39565b612e1b6020830184611e26565b9392505050565b7f4e6f74206f70657261746f720000000000000000000000000000000000000000600082015250565b6000612e58600c83611f53565b9150612e6382612e22565b602082019050919050565b60006020820190508181036000830152612e8781612e4b565b9050919050565b7f496e707574206172726179206c656e677468206d69736d617463680000000000600082015250565b6000612ec4601b83611f53565b9150612ecf82612e8e565b602082019050919050565b60006020820190508181036000830152612ef381612eb7565b9050919050565b7f4974656d206e6f74206163746976650000000000000000000000000000000000600082015250565b6000612f30600f83611f53565b9150612f3b82612efa565b602082019050919050565b60006020820190508181036000830152612f5f81612f23565b9050919050565b6000612f7182611e50565b9150612f7c83611e50565b9250828201905080821115612f9457612f93612968565b5b92915050565b60006060820190508181036000830152612fb48186611f9f565b90508181036020830152612fc88185612038565b90508181036040830152612fdc8184612038565b9050949350505050565b7f496e73756666696369656e742073746f636b0000000000000000000000000000600082015250565b600061301c601283611f53565b915061302782612fe6565b602082019050919050565b6000602082019050818103600083015261304b8161300f565b9050919050565b7f4e6f7420616e206f70657261746f720000000000000000000000000000000000600082015250565b6000613088600f83611f53565b915061309382613052565b602082019050919050565b600060208201905081810360008301526130b78161307b565b905091905056fea2646970667358221220a936dfdf8af6bcb302c82e258f1e7b14bacdb6963f7ed58b1cf657d0d21bb71e64736f6c634300081c0033",
  "linkReferences": {},
  "deployedLinkReferences": {}
}